:100000000C942F0A0C94600A0C94600A0C94600AF9
:100010000C94600A0C94600A0C94600A0C94600AB8
:100020000C94600A0C94600A0C94600A0C94600AA8
:100030000C94600A0C94600A0C94600A0C94600A98
:100040000C94600A0C94600A0C94600A0C94600A88
:100050000C94600A0C94600A0C94600A0C94CB0A0D
:100060000C94600A0C94041A0C942C190C94600AD9
:100070000C94600A0C94600A0C94600A0C94600A58
:100080000C94600A0C94600A0C94600A0C94600A48
:100090000C94D1190C94ED180C94600A0C94600A1D
:1000A0000C94600A0C94600A0C94600A0C94600A28
:1000B0000C94600A0C94600A0C94600A0C94600A18
:1000C0000C94600A0C94600A0C94600A0C949E19BB
:1000D0000C94AE180C94600A0C946B190C946F1865
:1000E0000C94600A0C94920A0C94620A0C94EF0E21
:1000F0000C9411150C94EC130C94E51A0C94F11457
:100100000C94C3130C94750D0C9457150C94F313A5
:100110000C942D150C94E0130C9499170C94C413A3
:100120000C9472290C94A4140C947F0A0C9423123E
:100130000C94D4130C94E6140C942E1E0C9482127E
:10014000000000000500010000030D0602F4050098
:1001500007050901F40A000A0C0A00F51900090F45
:100160000A01F32A00100D1000F444000C0D0D01DB
:10017000F4580003050501F45A0006110601F4675E
:100180000006110600F4740005060701F478000764
:10019000080B02F97F0003050401FF810005020638
:1001A00000FB830003020401FF8400050D0500F439
:1001B0008D00090D0A01F49C00050D0A02F4A5004A
:1001C000090D0A01F4B400080D0A01F4C100080D7C
:1001D0000A02F4CE00090D0A01F4DD00090D0A013E
:1001E000F4EC00090D0A00F4FB000A0D0A00F40CFF
:1001F00001090D0A01F41B0103090401F81F0103A1
:100200000C0401F8240109090B01F82F0109060B60
:1002100001FA360109090B01F84101090D0B01F43E
:100220005001100F1200F46E010C0D0D00F482014C
:100230000B0D0D01F494010C0D0D01F4A8010C0D32
:100240000D01F4BC01090D0C01F4CB01090D0B01EA
:10025000F4DA010B0D0E01F4EC010B0D0D01F4FEAF
:1002600001030D0601F40302080D0A01F410020C4B
:100270000D0D01F42402080D0B01F431020E0D10D6
:1002800001F448020B0D0E01F45A020D0D0E01F49B
:1002900070020B0D0C01F482020D0E0E01F4990296
:1002A0000C0D0D01F4AD020B0D0C01F4BF02090D94
:1002B0000C02F4CE020B0D0D01F4E0020C0D0C004B
:1002C000F4F402110D1100F410030C0D0C00F424D1
:1002D000030B0D0C01F43603090D0B01F445030467
:1002E000110601F44E03050D0500F4570304110631
:1002F00000F4600308080B01F468030A010A000413
:100300006A0303020500F46B030A0A0A01F7780383
:100310000A0D0B01F48903090A0A01F79503090D77
:100320000B01F4A403090A0A01F7B003050D060145
:10033000F4B903090E0B01F7C903090D0B01F4D839
:1003400003030D0501F4DD0304110500F4E60309C0
:100350000D0A01F4F503030D0501F4FA030E0A106A
:1003600001F70C04090A0B01F718040A0A0B01F73C
:1003700025040A0E0B01F73704090E0B01F7470499
:10038000060A0701F74F04090A0A01F75B04050C86
:100390000601F56304090A0B01F76F040A0A0A0053
:1003A000F77C040E0A0E00F78E040A0A0A00F79B77
:1003B000040A0E0A00F7AD04080A0901F7B704049D
:1003C000110701F4C00401110502F4C3040411076C
:1003D00002F4CC0408020900FCFFFFFE487EEFDFB8
:1003E000BF7440198667FDFF330CC333FEFF998647
:1003F0006190101F1FDEFF3F83C0FC1F09FCFEF74A
:10040000F1E04038107C30C620C640C6407C8039C0
:100410009C013E0363026304630C3E081C0E01F85A
:100420003B83B83F01E03E6776E3EE1CF3C7FE3F37
:1004300070FFF418631C738E38E38E1870C30608BF
:1004400061830E3871C71C71C638E31840213E45E0
:10045000283870E7FFE70E1CFC9CFFC0FC08C42393
:100460001084621188003E3F9DDC7E3F1F8FC7E3F2
:10047000F1DDCFE3E008FFF39CE739CE73803E3F28
:10048000B8FC70381C1C1C1C1C1C0FF7F83C7FE7C8
:10049000E7070C0E0707E7E77E3C0E1E1E2E2E4ECA
:1004A0004E8EFFFF0E0E0E7F3F90180DE7FB9E074E
:1004B0000381F1FFE7C03E3F9CFC0EE7FBDFC7E393
:1004C000F1DDEFE3E0FFFFC0E0E0607030381C0CCE
:1004D0000E0703803F1FEE3F87E3CFC7FBCFE1F856
:1004E0007F3DFE3F003E3FBDDC7E3F1FDEFF3B8188
:1004F000F9CFE3C0FC0007E0FC0007E5E00083C79C
:10050000DF0C0780F81F0180FFFFC0000FFFFC0019
:10051000703F03E0387DF1E080003E3FB8FC70386A
:100520001C1C1C1C0E000381C003F00FFC1E0E38A7
:100530000270E96319C219C611C633C63263FE736D
:10054000DC3C001FF807F00700F00F80F81D819CCD
:1005500019C38C3FE7FE706607E070FF9FFB83F0D6
:100560007E0FFF3FF706E0FC1F83FFEFF81F83FEBF
:1005700078E707E00E00E00E00E0070778F3FE1FC3
:1005800080FF8FFCE0EE0EE07E07E07E07E07E0E4F
:10059000E0EFFCFF80FFFFF81C0E07FBFDC0E070E2
:1005A000381FFFF8FFFFF81C0E07FBFDC0E0703896
:1005B0001C0E000F87F9E3B83E01C038FF1FE06E44
:1005C0000DE39FD0F2E0FC1F83F07E0FFFFFFF07DB
:1005D000E0FC1F83F07E0EFFFFFFFFFE070707070B
:1005E00007070707E7E7E77E3CE0EE1CE38E70EEC7
:1005F0000FC0FE0F70E70E38E1CE0EE0E0E0E0E065
:10060000E0E0E0E0E0E0E0E0FFFFF87FE1FF87FE10
:100610001FEC7FB37ECDFB37ECDF9E7E79F9E7E7F9
:100620009CE0FE1FC3FC7FCFD9FBBF37E7FC7F8771
:10063000F0FE0E0F81FF1E3CE0EE03F01F80FC0772
:10064000E03B839E3C7FC0F800FF9FFB87F07E0F5E
:10065000C3FFF7FCE01C0380700E000F81FF1E3CFF
:10066000E0EE03F01F80FC07E1BB8F9E3C7FE0FBC8
:100670008008FF8FFCE0EE0EE0EE0EFFCFFCE0EE18
:100680000EE0EE0EE0F03F0FFBC7F07E01FC1FF026
:100690003F00FC1DC7BFE1F8FFFFC70381C0E0704A
:1006A000381C0E070381C0E0FC1F83F07E0FC1F8E9
:1006B0003F07E0FC1FC7BFE1F060670E70E30C303E
:1006C000C39C1981981F80F00F00F0060061C3B829
:1006D000E19C70CE3CE336719B30ED98367C1B3C40
:1006E0000F1E078F01C380E18070E78E39C1F81FAC
:1006F00080F00700F01F819C39C70E70E0E0FC39E4
:10070000C718C3B83607C0700E01C0380700E0FF35
:10071000FFC0E0E0F07070707838381FFFF8FFEE2F
:10072000EEEEEEEEEEEFF086108610843084308030
:10073000FF7777777777777FF0181C3C3E366663D4
:10074000C3FFC0CC3F1FEE380E3F9EEE3B9EFF9E88
:10075000E0E0380E03BCFFBCEE1F87E1F87F3BFEF4
:10076000EF001F3FDC7C0E070380E37F8F000381D7
:10077000C0E777FBBF8FC7E3F1FDEFF3B83E3F9CC7
:10078000DC3FFFFF81C37F8F003BDDFFB9CE739C51
:10079000E7003BBFDDFC7E3F1F8FEF7F9DC0FC77F6
:1007A000F1F0E070381DEFFF9F8FC7E3F1F8FC7E9A
:1007B00038FC7FFFFFFE770777777777777FE0E07A
:1007C00070381C7E7773F1F8FE7739DC6E38FFFFE6
:1007D000FFFFFEEF7BFFFE39F8E7E39F8E7E39F8DF
:1007E000E7E39F8E70EF7FF8FC7E3F1F8FC7E3F13A
:1007F000C01E1FE73B87E1F87E1DCE7F8780EF3F5D
:10080000EF3B87E1F87E1FCEFFBBCE0380E03800D0
:100810003BBFFDFC7E3F1F8FEF7F9DC0E070381C0B
:10082000EFFF38E38E38E3803E3FB8FC0FC3FC3F58
:10083000C7FF1F0073BFF739CE739E70E3F1F8FC5A
:100840007E3F1F8FC7FFBDC0E1986739CC330DC312
:10085000E0781E0700E31D9E667999E677B8D2C35B
:10086000CF0F3C3CF07380739CE3F0781E0781E06F
:10087000FC739CE0E1D86739CE330EC3E0781E03E9
:1008800000C070380E00FEFE0E1C383870E0FFFF0E
:100890003766666EE666666730FFFF80CE6666671F
:1008A0007666666EC0718E11007F96290001007F0A
:1008B0009628003A0155C0021010C10141C504003C
:1008C000228040360168B00100B102B011B40102CB
:1008D000B60302023BB701C63A0155F704A9512CF1
:1008E00082C0020D0DC1024300C20100C5040048D0
:1008F0000048B40100B60302023BE00F0F211C0BBD
:100900000E08499838091103141000E10F0F2F2B1E
:100910000C0E06477637071104231E00B00100B302
:100920000402000000B40100D003074218D1030004
:100930000710D2020102D3020102D4020102C00553
:10094000123B000211C103101088C50103C6010249
:10095000C80C003236450616377577540C00CC01AA
:1009600000F603010100CF03008130ED046403129F
:1009700081E803851078CB05392C003402F701207B
:10098000EA020000B00100B102001BB40100C00186
:1009900021C10111C5023F3CC701B5360148F20132
:1009A00000260101E00F0F26240B0E0954A8460C67
:1009B00017090F0700E10F00191B0410072A473918
:1009C00003060630380F360100B80101C0010EB031
:1009D0000100C10410100202C0060035000001022F
:1009E000C50104D2020104CA0100EA0180B903FF73
:1009F00083577F967F96B60125C0065050013C1E56
:100A000008B4070240002A2A0D787F01F20B16165F
:100A1000030808080810041616FD03110235B20574
:100A20000C0C003333B70135BB012BC00104C202EB
:100A300001FFC30111C40120C6010FD002A4A1E02F
:100A40000ED000050E150D3743470915121619E192
:100A50000ED000050D0C062D44400E1C1816193A38
:100A600001557F0AB00103E2013FC00122E201000B
:100A7000B00100C0010AB001000000000000000049
:100A8000000000000000000000FFFF0F0000040055
:100A900062080008080003000C01030B5A02030659
:100AA00009030317100403002305030017060309B5
:100AB000630703090C08030C100903322210001607
:100AC00000110001011200000013000100000130BC
:100AD00003010137020301000D800200610201B031
:100AE000C1FFFF32000100000102000001030030DD
:100AF00010090001000C000000900000800F0000B1
:100B000000100200001102EF001202000013028F19
:100B100001000500000105000002055F000104015D
:100B20000004040000FFFF320007000001FFFF3255
:100B300000000200000102000000000000000000B0
:100B4000000000000000000100A4000100FFFF0AF7
:100B5000006000002708000808300014023100156A
:100B600037320004063300160E340011223500001F
:100B700015360007853700071438000314390020A4
:100B800000900015001000100411003702290046E3
:100B9000002A00460007000000120089011300002F
:100BA00011FFFF96001200B90101000001020000D0
:100BB0000203003010090001000A0000000D0000CF
:100BC000000E003000610001006A0000008000009B
:100BD000008100000082005F00920000019300018C
:100BE00007FFFF500007000001E500F0780100005A
:100BF00001020000020300301004000000050000A4
:100C00000008000702090000000A0000000C0000B4
:100C1000000D0000000F0000001000000011000790
:100C200000120000001300000007000100FFFFC8D1
:100C3000001000901611002702FFFF320012000D75
:100C400000FFFF32001300001229000A002B000DE4
:100C500000FFFF32002000000021000000300000F3
:100C6000003100040432000300350005043600089A
:100C7000083700070438000303390007073C000465
:100C8000053D00080860000027610001006A0000BF
:100C9000008000000081000000820000008300004E
:100CA0000084000000850000009000100092000009
:100CB0000007003301E50000800000010001000092
:100CC00001020000070300301004000000080002C9
:100CD00002090000000A0000000C0000000D0000E6
:100CE000000F0000001000000011000700120000BB
:100CF0000013000000FFFF32001000B017110007C2
:100D000000FFFF0A0012003A01FFFF0A0013000073
:100D10001A29000C00FFFF0A003000000031000516
:100D200005320004003500060036000707370005CD
:100D30000138000200390007073C0004073D0007A6
:100D400008600000A7610001006A000000210000A7
:100D500000200000008000000081000000820000F0
:100D60000083000000840000008500000090001057
:100D7000009200000093000300950010019700000E
:100D8000009800000007007301FFFF3200FF000120
:100D900000F3000800000001000100000102000053
:100DA00007030030100800020309000000100000D3
:100DB00000110007001200000013000000FFFF32C6
:100DC000001000B014FFFF0A0011000700FFFF0A27
:100DD0000012008E001300000C29001500FFFF0A0E
:100DE0000030000000310007013200000035000330
:100DF0000236000204370000003800070239000004
:100E0000003C0003023D000304600000A7610001F4
:100E1000009000290007003301FFFF320015003069
:100E2000009A001000110020001000283412000267
:100E30000013003810FFFF280012001200FFFF28E7
:100E4000001000203413004530FFFF460030000042
:100E500000310002043200070333000403340004AD
:100E6000003500010436000707370005033800107D
:100E700006390010060100000102000003030030E3
:100E800010080008080A000800600000276100013F
:100E90000090003E019200000193000001A00000BC
:100EA00030A3001000070001000700210007002305
:100EB00000070033000700330111001A001200215F
:100EC0003113006C001400494210000008FFFF0AB3
:100ED0000011001A01FFFF0A0011001A03FFFF0AA8
:100EE0000011001A07FFFF0A0011001A0FFFFF0A86
:100EF0000011003A0FFFFF1E000100280102000050
:100F0000010300301007001210080003030B00005B
:100F1000110C0000000F0001181500200050000106
:100F2000015100030652000804530000005400055C
:100F3000065500060456000303570003035800102B
:100F4000005900001007001200FFFF2800070013DF
:100F50000007001700D9034001207E1600000000A2
:100F6000003E5B4F5B3E3E6B4F6B3E1C3E7C3E1C2F
:100F7000183C7E3C181C577D571C1C5E7F5E1C0075
:100F8000183C1800FFE7C3E7FF0018241800FFE72C
:100F9000DBE7FF30483A060E2629792926407F05EF
:100FA0000507407F05253F5A3CE73C5A7F3E1C1C05
:100FB00008081C1C3E7F14227F22145F5F005F5FC5
:100FC00006097F017F006689956A606060606094B1
:100FD000A2FFA29408047E040810207E20100808B6
:100FE0002A1C08081C2A08081E101010100C1E0CC1
:100FF0001E0C30383E3830060E3E0E060000000053
:101000000000005F00000007000700147F147F1439
:10101000242A7F2A1223130864623649562050007E
:1010200008070300001C2241000041221C002A1C6A
:101030007F1C2A08083E0808008070300008080855
:101040000808000060600020100804023E51494575
:101050003E00427F400072494949462141494D3393
:101060001814127F1027454545393C4A49493141FA
:10107000211109073649494936464949291E0000C8
:10108000140000004034000000081422411414141D
:101090001414004122140802015909063E415D5909
:1010A0004E7C1211127C7F494949363E4141412212
:1010B0007F4141413E7F494949417F090909013E3C
:1010C000414151737F0808087F00417F4100204063
:1010D000413F017F081422417F404040407F021C75
:1010E000027F7F0408107F3E4141413E7F0909098C
:1010F000063E4151215E7F09192946264949493258
:1011000003017F01033F4040403F1F2040201F3F1D
:101110004038403F631408146303047804036159A2
:10112000494D43007F4141410204081020004141E4
:10113000417F040201020440404040400003070890
:101140000020545478407F2844443838444444288C
:10115000384444287F385454541800087E09021833
:10116000A4A49C787F0804047800447D40002040BB
:10117000403D007F1028440000417F40007C0478FF
:1011800004787C080404783844444438FC18242447
:101190001818242418FC7C080404084854545424C7
:1011A00004043F44243C4040207C1C2040201C3C44
:1011B0004030403C44281028444C9090907C44643B
:1011C000544C4400083641000000770000004136CE
:1011D000080002010204023C2623263C1EA1A16154
:1011E000123A4040207A3854545559215555794186
:1011F0002254547842215554784020545579400C5B
:101200001E5272123955555559395454545939553D
:101210005454580000457C410002457D4200014580
:101220007C407D1211127DF0282528F07C54554514
:10123000002054547C547C0A097F49324949493280
:101240003A4444443A324A4848303A4141217A3A91
:1012500042402078009DA0A07D3D4242423D3D405D
:1012600040403D3C24FF2424487E4943662B2FFC0C
:101270002F2BFF0929F620C0887E090320545479BA
:10128000410000447D413048484A32384040227A8B
:10129000007A0A0A727D0D19317D2629292F282608
:1012A0002929292630484D40203808080808080810
:1012B0000808382F10C8ACBA2F102834FA00007B69
:1012C000000008142A142222142A1408550055007C
:1012D00055AA55AA55AAFF55FF55FF000000FF006B
:1012E000101010FF00141414FF001010FF00FF1066
:1012F00010F010F0141414FC001414F700FF000098
:10130000FF00FF1414F404FC141417101F10101F16
:10131000101F1414141F00101010F0000000001F04
:10132000101010101F10101010F010000000FF100F
:101330001010101010101010FF10000000FF14000B
:1013400000FF00FF00001F10170000FC04F414143D
:101350001710171414F404F40000FF00F714141409
:1013600014141414F700F7141414171410101F1089
:101370001F141414F4141010F010F000001F101FAC
:101380000000001F14000000FC140000F010F0101A
:1013900010FF10FF141414FF141010101F00000091
:1013A00000F010FFFFFFFFFFF0F0F0F0F0FFFFFF95
:1013B0000000000000FFFF0F0F0F0F0F38444438EC
:1013C00044FC4A4A4A347E02020606027E027E023B
:1013D00063554941633844443C04407E201E200646
:1013E000027E020299A5E7A5991C2A492A1C4C7283
:1013F00001724C304A4D4D303048784830BC625A0A
:10140000463D3E494949007E0101017E2A2A2A2A99
:101410002A44445F444440514A444040444A514075
:101420000000FF0103E080FF000008086B6B083636
:1014300012362436060F090F0600001818000000A7
:101440001010003040FF0101001F01011E00191D96
:101450001712003C3C3C3C000000000072291124A3
:101460001FBECFEFD1E2DEBFCDBF00E00CBF12E068
:10147000A0E0B2E0EEE2F5E500E00BBF02C00790AD
:101480000D92A036B107D9F725E0A0E6B2E001C081
:101490001D92A834B207E1F71AE0CFE2DAE000E0EB
:1014A00006C021970109802FFE010E948D2ACE32AD
:1014B000D10780E00807A9F70E9436220C94682A19
:1014C0000C940000EF92FF920F931F93DC011A9689
:1014D0000D911C911B9718962D913C911997ED91A8
:1014E000FC91048CF58DE02D7B0140E050E060E044
:1014F00070E019951F910F91FF90EF900895EF9272
:10150000FF920F931F93DC01ED91FC91048CF58DFC
:10151000E02D780101E010E019951F910F91FF90E7
:10152000EF900895EF92FF920F931F93DC01ED91DE
:10153000FC91048CF58DE02D7801890121E030E0EB
:1015400019951F910F91FF90EF9008953FB7F89470
:101550008091650290916602A0916702B091680245
:1015600026B5A89B05C02F3F19F00196A11DB11DFE
:101570003FBFBA2FA92F982F8827820F911DA11D39
:10158000B11DBC01CD0142E0660F771F881F991F76
:101590004A95D1F708951F920F920FB60F9211241A
:1015A0002F933F938F939F93AF93BF93809161024B
:1015B00090916202A0916302B09164023091600246
:1015C00023E0230F2D3720F40196A11DB11D05C086
:1015D00026E8230F0296A11DB11D2093600280937F
:1015E000610290936202A0936302B09364028091BF
:1015F000650290916602A0916702B091680201961F
:10160000A11DB11D8093650290936602A0936702AD
:10161000B0936802BF91AF919F918F913F912F91AD
:101620000F900FBE0F901F9018950895FC016370E6
:10163000658B8481958126813781613039F06330F3
:1016400029F0918780873387228708953187208703
:101650009387828708958B988A9820910201277832
:1016600020930201A5982EB1277C2EB9709102011A
:10167000292F3327F901E370FF27A5E0EE0FFF1FA5
:10168000AA95E1F7E72BE09302017EB1F901EC7036
:10169000FF27EE0FFF1FEE0FFF1FE72BEEB974B30E
:1016A000F901E071FF27EE0FFF1FE72BE4BB7EB1CE
:1016B000F901E072FF27F595E795F595E795E72B9A
:1016C000EEB970910201207C3327E3E03595279530
:1016D000EA95E1F7272B209302018998899A2091B6
:1016E0000201277820930201A5982EB1277C2EB9FC
:1016F000709102019C0123703327F5E0220F331F04
:10170000FA95E1F7272B209302017EB19C012C7002
:101710003327220F331F220F331F272B2EB974B309
:101720009C0120713327220F331F272B24BB7EB14E
:101730009C01207233273595279535952795272BC2
:101740002EB9709102019C01207C3327F3E035957E
:101750002795FA95E1F7272B209302018998899A1A
:101760008A9AFA01A0916B027FEF760F16160CF0A1
:10177000C7C0219130910201377830930201A598BA
:101780003EB1377C3EB960910201322F3370B0E236
:101790003B9FA0011124462B409302016EB1322FD2
:1017A0003C70B4E03B9FA0011124462B4EB944B3DA
:1017B000322F3071330F342B34BB6EB1322F307275
:1017C000432F50E05595479555954795462B4EB973
:1017D00030910201207C269526952695232B209377
:1017E00002018998899A711102C0672FBDCFAA237F
:1017F000E1F301968A982091020127782093020153
:10180000A5982EB1277C2EB960910201292F33278C
:10181000A90143705527B5E0440F551FBA95E1F76C
:10182000462B409302016EB1A9014C705527440F1D
:10183000551F440F551F462B4EB964B3A901407183
:101840005527440F551F462B44BB6EB1A90140726A
:1018500055275595479555954795462B4EB9409137
:101860000201207C332753E0359527955A95E1F7FF
:10187000242B209302018998899A209102012778CC
:1018800020930201A5982EB1277C2EB94091020128
:101890009C012370332765E0220F331F6A95E1F71F
:1018A000242B209302014EB19C012C703327220F70
:1018B000331F220F331F242B2EB944B39C012071F8
:1018C0003327220F331F242B24BB4EB19C012072DF
:1018D00033273595279535952795242B2EB940919B
:1018E00002019C01207C3327B3E035952795BA95FA
:1018F000E1F7242B209302018998899A8A9A75CF5F
:101900008B9A08958B988A98E2E0F1E020812778FD
:101910002083A5982EB1277C2EB9A081292F3327AB
:10192000A90143705527B5E0440F551FBA95E1F75B
:101930004A2B4083AEB1A9014C705527440F551F67
:10194000440F551F4A2B4EB9A4B3A9014071552726
:10195000440F551F4A2B44BBAEB1A9014072552715
:1019600055954795559547954A2B4EB94081207C12
:10197000332753E0359527955A95E1F7242B20839B
:101980008998899A208127782083A5982EB1277C71
:101990002EB940819C0123703327A5E0220F331F0D
:1019A000AA95E1F7242B20834EB19C012C7033279C
:1019B000220F331F220F331F242B2EB944B39C0157
:1019C00020713327220F331F242B24BB4EB19C01DF
:1019D000207233273595279535952795242B2EB9D9
:1019E0002081807C9927B3E095958795BA95E1F79A
:1019F000822B80838998899A8A9A808187788083CC
:101A0000A5988EB1877C8EB94081872F99279C013C
:101A10002370332755E0220F331F5A95E1F7242B0B
:101A200020834EB19C012C703327220F331F220FCD
:101A3000331F242B2EB944B39C0120713327220F6E
:101A4000331F242B24BB4EB19C01207233273595C4
:101A5000279535952795242B2EB92081807C9927B1
:101A6000A3E095958795AA95E1F7822B80838998C5
:101A7000899A808187788083A5988EB1877C8EB97A
:101A80002081CB0183709927B5E0880F991FBA9503
:101A9000E1F7822B80832EB1CB018C709927880FC0
:101AA000991F880F991F822B8EB924B3CB018071A7
:101AB0009927880F991F822B84BB2EB1CB0180728E
:101AC00099279595879595958795822B8EB98081D5
:101AD000607C7727A3E075956795AA95E1F7682B59
:101AE00060838998899A8B9A0895EF92FF920F9359
:101AF0001F93CF93DF937C01E90177FD69C157FD07
:101B000067C1FC0180859185681779070CF060C179
:101B100082859385481759070CF05AC180916A0253
:101B2000882341F0CE018F719927880F991FC17CBE
:101B3000C82BD92B8A019B01C7010E945F1D809190
:101B40006B02882309F438C18B988A98F70182A523
:101B500093A520910201277820930201A5982EB128
:101B6000277C2EB960910201292F3327A9014370E8
:101B7000552775E0440F551F7A95E1F7462B4093A2
:101B800002016EB1A9014C705527440F551F440F37
:101B9000551F462B4EB964B3A90140715527440F18
:101BA000551F462B44BB6EB1A90140725527559570
:101BB000479555954795462B4EB940910201207C9B
:101BC0003327B3E035952795BA95E1F7242B209379
:101BD00002018998899A20910201277820930201B5
:101BE000A5982EB1277C2EB9409102019C0123704B
:101BF000332715E0220F331F1A95E1F7242B20938A
:101C000002014EB19C012C703327220F331F220F8B
:101C1000331F242B2EB944B39C0120713327220F8C
:101C2000331F242B24BB4EB19C01207233273595E2
:101C3000279535952795242B2EB920910201807C7C
:101C4000992773E0959587957A95E1F7822B809394
:101C500002018998899A8A9A2C2F220F220F220F2B
:101C600080910201877880930201A5988EB1877CCC
:101C70008EB980910201809302013EB1CE01882786
:101C8000987F892F9927AC014C705527440F551F19
:101C9000440F551F432B4EB934B3AC014071552747
:101CA000440F551F432B44BB3EB1AC014072552736
:101CB0005595479555954795432B4EB9309102015F
:101CC000807C992713E0959587951A95E1F7832BEA
:101CD000809302018998899A809102018778809384
:101CE0000201A5988EB1877C8EB980910201809304
:101CF00002013EB1C07ED77003E0D695C7950A9524
:101D0000E1F7CE018C709927880F991F880F991FD2
:101D1000832B8EB934B3CE0180719927880F991F18
:101D2000832B84BB3EB1CE01807299279595879510
:101D300095958795832B8EB980910201C07CDD2714
:101D400073E0D595C7957A95E1F7C82BC09302014A
:101D50008998899A80910201877880930201A598D9
:101D60008EB1877C8EB980910201809302019EB171
:101D7000822F8C70880F880F892B8EB994B3822F95
:101D80008071880F892B84BB3EB1922F9072892F6E
:101D900090E09595879595958795832B8EB9809141
:101DA0000201207C269526952695282B209302015A
:101DB0008998899A8B9A0CC0BE01F70182A593A5D8
:101DC000DF91CF911F910F91FF90EF900C94820CB7
:101DD000DF91CF911F910F91FF90EF900895DF92C7
:101DE000EF92FF920F931F93CF93DF93CDB7DEB7A0
:101DF0002A970FB6F894DEBF0FBECDBF7C01862FA9
:101E00008370D70155968C935597462F417060FF8C
:101E100005C016962D913C91179703C0F7012481B8
:101E20003581D70119963C932E931897442329F0B6
:101E300014962D913C91159703C0F70126813781A7
:101E4000D7011B963C932E931A97823041F0833032
:101E500041F0813011F088E405C088E203C088E9D0
:101E600001C088EF8A87F701248D358D30FF03C0CC
:101E70008A8580588A8731FF04C09A8580E4892743
:101E80008A8733FF04C09A8588E089278A87D7012B
:101E90005E968D919C915F9720FFD5C010916B024B
:101EA0008431B8E69B07F9F49A85892F881F882723
:101EB000881F8295880F880F807C96FD02C020E0E5
:101EC00001C020E298729A871F828260822B8887E5
:101ED0008BE38987AE01495F5F4F63E086EB90E05B
:101EE0000E942B0B89C08336E9E19E0741F08138BF
:101EF000F4E99F0721F0813125E1920709F52A8550
:101F000027FF02C021602A872A8526FF02C022609F
:101F10002A87833639E1930719F48A858F730EC0B7
:101F2000813844E9940719F48A858F7207C081319A
:101F3000954109F061C08A858F7E806C8A875CC07C
:101F4000112309F459C062E070E0F70177A366A39A
:101F500026E030E031A720A7E2E2F0E0D7019B962F
:101F6000FC93EE939A979D967C936E939C9764E076
:101F700070E09F967C936E939E97D1963C932E93A0
:101F8000D09728E030E0D3963C932E93D2978536B5
:101F9000910521F58A85982F916084FD02C09A876A
:101FA00003C083ED89278A87442351F082E890E0BB
:101FB000F70197A386A380E890E091A780A732C29B
:101FC00080E890E0D70197969C938E93969782E84D
:101FD00090E099969C938E93989724C2823592456F
:101FE00001F58A85982F926084FD02C09A8719C0F6
:101FF00084ED89278A8715C02AE230E0F70137A3EC
:1020000026A38BE290E091A780A74CE250E053A773
:1020100042A735A724A737A726A791AB80AB93ABE0
:1020200082AB1111FFC186E390E0AE01465F5F4FC6
:1020300061E00E942B0B8A8590E0D70193969C93D8
:102040008E939297E6C02A858339B7E79B0709F4F8
:1020500048C050F48435F1E09F0781F0803234E5C8
:10206000930709F081C03DC0863243E99407C9F166
:102070008930A5EB9A0709F077C033C087E390E079
:10208000F70195A784A786E390E097A786A789E341
:1020900090E091AB80AB88E390E093AB82AB80E2C1
:1020A00090E097A386A381E290E091A780A782E2C7
:1020B00090E093A782A7822F022E000C990B88270D
:1020C000990F881F9927982F8827990F26FD03C0FD
:1020D00060E070E002C060E071E08862682B792BFC
:1020E00082C040E052E0D70197965C934E9396975A
:1020F00041E052E099965C934E93989742E052E00B
:102100009B965C934E939A9740E152E09D965C9328
:102110004E939C9741E152E09F965C934E939E971D
:1021200042E152E0D1965C934E93D09743E152E066
:10213000D3965C934E93D29727FD03C020E030E006
:1021400002C020E030E88632B3E99B0731F08032EC
:10215000944519F060E07AE602C060E075E3622B16
:10216000732B80E094E035C080E290E0D701979631
:102170009C938E93969781E290E099969C938E9390
:10218000989782E290E09B969C938E939A9780E535
:1021900090E09D969C938E939C9781E590E09F960E
:1021A0009C938E939E9782E590E0D1969C938E931C
:1021B000D09783E590E0D3969C938E93D29727FD9A
:1021C00003C060E070E002C060E070E8776280E623
:1021D00090E00E94820C8A8586FD03C060E070E07A
:1021E00002C060E071E081E090E00E94820C8A858C
:1021F00085FD03C060E070E002C068E070E083FD30
:1022000070616063F70173A362A383E090E00E94B2
:10221000820CD70155968C91559780FF36C05C96FD
:102220008D919C915D9792FD30C096968D919C9179
:10223000979798962D913C91999797963C932E93CA
:10224000969799969C938E9398979C968D919C9136
:102250009D97D0962D913C91D1979D963C932E932E
:102260009C97D1969C938E93D0979E968D919C919E
:102270009F97D2962D913C91D3979F963C932E9306
:102280009E97D3969C938E93D297F70102851385E0
:1022900001501109208531852150310940E050E07D
:1022A00060E070E0C7010E945F1DD70116966D9136
:1022B0007C9117975E968D919C915F978732B3E9D9
:1022C0009B0741F4F70125892250223018F400E2DF
:1022D00010E002C000E010E08732F3E99F0729F028
:1022E00022273327201B310B04C020E230E0201BC3
:1022F000310BD7015C964C9140FF45C01982D02E1E
:102300000A837B836C833D832E8310916B021111B2
:1023100003C083E390E002C08EE090E0AE014F5F27
:102320005F4F66E00E942B0B1982DA82111103C005
:1023300087E390E002C084E190E0AE014F5F5F4F21
:1023400062E00E942B0B112389F01982F701868D20
:10235000978D8734934819F081E090E002C088E1BE
:1023600090E0AE014F5F5F4F61E00AC0D7015C961D
:102370008C9180FF5AC040E050E060E083E190E043
:102380000E942B0B52C08339B7E79B0779F160F4A9
:102390008032F4E59F0751F1833827E7920781F0F7
:1023A0008435914089F510C0863243E99407F1F0F5
:1023B0008930A5EB9A07D1F08532924929F504C0FE
:1023C000F70160A171A124C0600F711F61507109F4
:1023D00081E390E00E94820CB80182E390E00E94C9
:1023E000820C60E070E083E390E019C0D701909622
:1023F0006D917C919197626081E094E00E94820CE3
:10240000B80184E094E00BC0F70160A171A16260A3
:1024100081E690E00E94820CB8018AE690E00E947A
:10242000820C03C086E190E000CE2A960FB6F894A5
:10243000DEBF0FBECDBFDF91CF911F910F91FF90F7
:10244000EF90DF9008956F927F928F929F92AF925C
:10245000BF92CF92DF92EF92FF920F931F93CF9391
:10246000DF93EC014B015A0169013801E881F981E0
:102470000680F781E02D1995E881F9810684F785BA
:10248000E02D87019601A501B401CE011995A501A2
:10249000460D571D41505109E881F9810684F785A1
:1024A000E02D9601B401CE011995E881F9810484EB
:1024B000F585E02D9301A501B401CE011995C80C55
:1024C000D91CB60161507109E881F9810484F58550
:1024D000E02D9301A501CE011995E881F9810288CB
:1024E000F389E02DCE01DF91CF911F910F91FF90E5
:1024F000EF90DF90CF90BF90AF909F908F907F90A4
:102500006F9019948F929F92AF92BF92CF92DF9269
:10251000EF92FF920F931F93CF93DF934C016B01C8
:102520005A01E901DC01ED91FC916217730781F416
:102530000417150724F48B2D5801042F182F0A199E
:102540001B0998012F5F3F4F008CF18DE02D12C0C9
:102550004017510709F52617370724F48D2D690117
:10256000C62FD82F9E012C193D092F5F3F4F028C9B
:10257000F38DE02D8701A501B601C4011995DF9106
:10258000CF911F910F91FF90EF90DF90CF90BF9070
:10259000AF909F908F9008950680F781E02D199558
:1025A000D401ED91FC910088F189E02D9E01A501F7
:1025B000B601C4011995D401ED91FC910288F3890B
:1025C000E02DC401DF91CF911F910F91FF90EF900B
:1025D000DF90CF90BF90AF909F908F901994EF9223
:1025E000FF920F931F93DC011A960D911C911B977C
:1025F00018962D913C911997ED91FC91048CF58DD5
:10260000E02D7B0140E050E060E070E019951F9103
:102610000F91FF90EF9008954F925F926F927F928B
:102620008F929F92AF92BF92CF92DF92EF92FF92E2
:102630000F931F93CF93DF936C012B015A01390144
:102640004801DC01ED91FC910680F781E02D1995A0
:10265000E201640C751CD601ED91FC91C615D705FD
:102660005CF40484F585E02D87019401A501BE0189
:10267000C60119952196EFCF0288F389E02DC60196
:10268000DF91CF911F910F91FF90EF90DF90CF904E
:10269000BF90AF909F908F907F906F905F904F9082
:1026A00019948F929F92AF92BF92CF92DF92EF9246
:1026B000FF920F931F93CF93DF93EC015B014A01CD
:1026C0006901E881F9810680F781E02D199595016E
:1026D0002C0D3D1D21503109E881F9810088F189D7
:1026E000E02D78018401A401B501CE011995E8819E
:1026F000F9810288F389E02DCE01DF91CF911F91FE
:102700000F91FF90EF90DF90CF90BF90AF909F9090
:102710008F9019948F929F92AF92BF92CF92DF9237
:10272000EF92FF920F931F93CF93DF93EC015B0126
:102730004A0169017801E881F9810680F781E02D7D
:102740001995C80CD91C860101501109E881F9813D
:102750000088F189E02D9501A401B501CE011995FC
:10276000E881F9810288F389E02DCE01DF91CF91D4
:102770001F910F91FF90EF90DF90CF90BF90AF909F
:102780009F908F9019940895EF92FF920F931F934B
:10279000DC01ED91FC91048CF58DE02D19951F91D4
:1027A0000F91FF90EF9008950F931F93DC01ED912F
:1027B000FC91028CF38DE02D19951F910F910895D6
:1027C0000F931F93DC01ED91FC91008CF18DE02DB6
:1027D00019951F910F910895DC01ED91FC910480F2
:1027E000F581E02D19942F923F924F925F926F9254
:1027F0007F928F929F92AF92BF92CF92DF92EF9291
:10280000FF920F931F93CF93DF9300D000D0CDB7EB
:10281000DEB72C017E836D836A015901C801FC82F9
:10282000EB824801841A950A97FE03C09194819423
:10283000910835012D813E81621A730A77FE03C02B
:10284000719461947108681479045CF43A2D2B2D0D
:102850005C01832F922F3D812E81DE82CD82C32E9B
:10286000D22EAD81BE81AA16BB065CF43C2D2D2D67
:102870006C01832F922F3D812E81BE82AD82A32ECB
:10288000B22E85012D813E81021B130B1C012C18D9
:102890003D0837FE03C0319421943108780117FFB9
:1028A00003C03FEFE31AF30AF594E794C816D9067C
:1028B0002CF08FEF9FEF9A83898304C0A1E0B0E0F2
:1028C000BA83A9832D813E81A216B30624F1D201D9
:1028D000ED91FC910084F185E02D2B813C81681401
:1028E000790424F44D815E81B60103C0A6016D8197
:1028F0007E81C2011995E218F308F7FE06C029810E
:102900003A81C20ED31EE00EF11E8D819E8101968A
:102910009E838D83D7CF26960FB6F894DEBF0FBE69
:10292000CDBFDF91CF911F910F91FF90EF90DF907E
:10293000CF90BF90AF909F908F907F906F905F905F
:102940004F903F902F9008950F931F93CF93DF9355
:10295000FC01A685B7858D01005C1F4FE8018881C9
:10296000998101968F739927AD014E5B5F4FEA0104
:102970002881398128173907D1F3E8012881398165
:10298000A20FB31F6C93A685B785A05CBF4F1196AD
:102990009C938E93A689B7892C9181E090E0078C57
:1029A00002C0880F991F0A94E2F7822B8C9381E072
:1029B00081A30488F589E02D80818064808381E093
:1029C00090E0DF91CF911F910F910895FC0181A1BB
:1029D000882329F0A489B5898C9186FFFBCF11A2A9
:1029E0000895FC01A485B585FD01E05CFF4F2081C1
:1029F00031813296808191812817390779F0808161
:102A00009181A80FB91F8C91208131812F5F3F4F99
:102A10002F7333273183208390E008958FEF9FEF4A
:102A20000895DC011C96ED91FC911D97DF01A05CDF
:102A3000BF4F2D913C91119712968D919C911197BA
:102A40002817390739F08D919C91E80FF91F808183
:102A500090E008958FEF9FEF0895FC012485358560
:102A6000F901E05CFF4F80819181329620813181B4
:102A7000821B930B8F7399270895FB01E05CFF4F36
:102A800020813181DB01AE5BBF4F4D915C912F5FA7
:102A90003F4F2F7333274217530741F04081518135
:102AA000DB01A40FB51F8C93318320830895CF924F
:102AB000DF92EF92FF920F931F93CF93DF936C01FE
:102AC000EB017B01E40EF51E00E010E0CE15DF0502
:102AD00061F06991D601ED91FC910190F081E02DBA
:102AE000C6011995080F191FF1CFC801DF91CF91C9
:102AF0001F910F91FF90EF90DF90CF9008952F924C
:102B00003F924F925F926F927F928F929F92AF927D
:102B1000BF92CF92DF92EF92FF920F931F93CF93CA
:102B2000DF93CDB7DEB76B970FB6F894DEBF0FBE5D
:102B3000CDBF9B8F8A8F5B011A01D22E1F830E831C
:102B40003701C982DC0158962D913C915997211586
:102B5000310509F0E6C018968D919C911997681778
:102B600079070CF0CDC11A968D919C911B9748174F
:102B700059070CF0C5C18C2C912CFB0126E0C29E9C
:102B8000E00DF11D1124FB87EA871E161F060CF0CD
:102B9000B7C1A40183E0440F551F8A95E1F75D8713
:102BA0004C87CA01820D931D181619060CF0A8C196
:102BB00057968C91811104C05FEA5D1508F4D39497
:102BC000AA8DBB8DED91FC9111970680F781E02DC8
:102BD000CD011995B5E0DB9EC0011124F5013596B4
:102BE000FF87EE87BB82AA8225019C012A193B0937
:102BF000398B288BA101485F5F4F5B8B4A8BE8893B
:102C0000F989E40DF51DE45AF04F5491588761019C
:102C10003D822C82888580FF13C0AA8DBB8DED91EB
:102C2000FC91B981B13031F40084F185E02D2E8121
:102C30003F8116C00284F385E02DEE80FF801AC02C
:102C4000EE81FF81E615F705F1F0AA8DBB8DED91C0
:102C5000FC91B981B13051F40084F185E02D9301EC
:102C6000A601B2018A8D9B8D19950DC00284F38552
:102C7000E02D7301840194014C815D816A817B8127
:102C80008A8D9B8D1995E885E695E887FFEFCF1A29
:102C9000DF0A2C813D81280D391D3D832C834A8913
:102CA0005B89C416D50609F0B5CF5FEF451A550A02
:102CB0008A819B81880D991D9B838A83AE85BF8500
:102CC0004A165B0609F09BCFEE81FF81E615F705FA
:102CD00009F4F4C0EA8DFB8DA081B181F981F13056
:102CE00079F4B5016B5F7F4F1C96ED91FC911D97B8
:102CF000830128E030E0A1018A8D9B8D1995DEC00B
:102D00006A857B85681979091A96ED91FC911B9764
:102D100073010C851D859401A1018A8D9B8D1995E8
:102D2000CDC0F9013496E491DE1AF901329685910D
:102D30009491B7E0DB9E800D911D1124F90125913E
:102D400034913B8B2A8BFC01259134912901FC01A4
:102D50003296C490319634913E87329614913196D2
:102D6000D4904981423058F0612E012E000C770832
:102D70008D2D0D2C000C990B9987888704C019861E
:102D80001886612C712CAA8DBB8DED91FC91119749
:102D90000680F781E02DCD011995B9818B2E912CFC
:102DA000689CC001699C900D789C900D1124FC01D9
:102DB000EA0DFB1DFD87EC871A82712C612CE12F37
:102DC000110FFF0B95012E0F3F1F3B872A87AC0C7D
:102DD000B11CA5014E0F5F1F5F8B4E8BC1018D0D86
:102DE000911DD7FC9A95998F888F9E85691608F05A
:102DF00065C0862D90E048855985480F591F489D2C
:102E00009001499D300D589D300D1124D101A20F24
:102E1000B31FB98BA88BEC85FD85FD83EC83AA8459
:102E2000BB84DA80FA85DF1A288D398D280F391F87
:102E30003D8B2C8B8D2D8A0D4E895F89A416B5068E
:102E4000C1F1877041F4C2010196EA89FB89E40D62
:102E5000F51D74902C0177FE21C0AA8DBB8DED91DC
:102E6000FC91B981B13061F40084F185E02D2E81AF
:102E70003F814C895D89B5018A8D9B8D19950EC066
:102E80000284F385E02DEE80FF808401940148895F
:102E900059896C817D818A8D9B8D1995770CEFEF17
:102EA000AE1ABE0A2C813D81280D391D3D832C832D
:102EB000C1CF3A813C0D3A83639497CFAA8DBB8DE5
:102EC000ED91FC9111970288F389E02DCD016B966D
:102ED0000FB6F894DEBF0FBECDBFDF91CF911F912B
:102EE0000F91FF90EF90DF90CF90BF90AF909F90A9
:102EF0008F907F906F905F904F903F902F9019949C
:102F00006B960FB6F894DEBF0FBECDBFDF91CF91A9
:102F10001F910F91FF90EF90DF90CF90BF90AF90F7
:102F20009F908F907F906F905F904F903F902F90E9
:102F30000895AF92BF92CF92EF92FF920F931F939B
:102F4000CF93DF93EC01262F888D998D009709F0A0
:102F500040C06A3059F41D861C862C898E859F8559
:102F600038E0239F800D911D112441C06D3009F47C
:102F7000AAC08E898823C1F03C898C859D8546E056
:102F8000349F800D911D1124488559854817590794
:102F90005CF41D861C868E859F8548E0349F800DDD
:102FA000911D11249F878E87EA88FB8808891989DB
:102FB0004E855F856C857D85CC88CE010E947F150E
:102FC0002C898C859D8536E0239F800D911D1124D1
:102FD00042C06A3079F41D861C862C89FC01369625
:102FE000E4918E859F852E9F800D911D11249F87D2
:102FF0008E8769C06D3009F466C0FC013496349147
:10300000631708F460C03196E491E61708F45BC0DA
:10301000FC01329665917491422F50E0431B510997
:1030200037E0349F5001359FB00C1124A60EB71E17
:10303000F501329634913196E491332311F0E11188
:103040000DC0F5013496E4912C898C859D85E29F15
:10305000800D911D11249D878C8735C0F501359613
:1030600044915E89552311F16C89E32FF0E0E40F60
:10307000F11D47FDFA956E9FD0016F9FB00D112491
:103080004C855D854A0F5B1FE885F985E417F507D8
:103090006CF41D861C86FC013696E4918E859F8516
:1030A0006E9F800D911D11249F878E87EA88FB8873
:1030B000088919894E855F856C857D85CC88CE0110
:1030C0000E947F15BECF81E090E0DF91CF911F91EC
:1030D0000F91FF90EF90CF90BF90AF9008951F9207
:1030E0000F920FB60F9211240BB60F922F933F93AE
:1030F0008F939F93EF93FF932091AC023091AD0299
:103100008091AE029091AF022817390731F4809177
:1031100031018F7D8093310114C0E091AE02F091B6
:10312000AF02E459FD4F20818091AE029091AF0231
:1031300001968F7399279093AF028093AE022093EC
:103140003601FF91EF919F918F913F912F910F90B9
:103150000BBE0F900FBE0F901F9018951F920F92ED
:103160000FB60F9211240BB60F922F933F938F93AC
:103170009F93EF93FF932091340330913503809117
:103180003603909137032817390731F48091D10025
:103190008F7D8093D10014C0E0913603F091370306
:1031A000EC50FD4F208180913603909137030196BA
:1031B0008F73992790933703809336032093D6001B
:1031C000FF91EF919F918F913F912F910F900BBEA7
:1031D0000F900FBE0F901F9018951F920F920FB671
:1031E0000F9211240BB60F922F933F938F939F93BF
:1031F000EF93FF932091BC033091BD038091BE03F8
:103200009091BF032817390731F48091C9008F7D51
:103210008093C90014C0E091BE03F091BF03E4584D
:10322000FC4F20818091BE039091BF0301968F7364
:1032300099279093BF038093BE032093CE00FF9104
:10324000EF919F918F913F912F910F900BBE0F9017
:103250000FBE0F901F9018951F920F920FB60F92EE
:1032600011240BB60F922F933F938F939F93EF935D
:10327000FF9320914404309145048091460490913D
:1032800047042817390731F48091C1008F7D80935E
:10329000C10014C0E0914604F0914704EC5FFB4F7D
:1032A0002081809146049091470401968F7399275D
:1032B00090934704809346042093C600FF91EF91BA
:1032C0009F918F913F912F910F900BBE0F900FBE4A
:1032D0000F901F9018951F920F920FB60F92112406
:1032E0000BB60F922F933F934F935F936F937F9300
:1032F0008F939F93AF93BF93EF93FF938091300190
:1033000082FD07C08091360160EB72E00E943D159E
:1033100002C080913601FF91EF91BF91AF919F91D3
:103320008F917F916F915F914F913F912F910F906E
:103330000BBE0F900FBE0F901F9018951F920F920B
:103340000FB60F9211240BB60F922F933F934F930A
:103350005F936F937F938F939F93AF93BF93EF93FD
:10336000FF938091D00082FD07C08091D60068E372
:1033700073E00E943D1502C08091D600FF91EF914D
:10338000BF91AF919F918F917F916F915F914F917D
:103390003F912F910F900BBE0F900FBE0F901F907B
:1033A00018951F920F920FB60F9211240BB60F9221
:1033B0002F933F934F935F936F937F938F939F933D
:1033C000AF93BF93EF93FF938091C80082FD07C036
:1033D0008091CE0060EC73E00E943D1502C08091A8
:1033E000CE00FF91EF91BF91AF919F918F917F910F
:1033F0006F915F914F913F912F910F900BBE0F9066
:103400000FBE0F901F9018951F920F920FB60F923C
:1034100011240BB60F922F933F934F935F936F93AB
:103420007F938F939F93AF93BF93EF93FF9380917D
:10343000C00082FD07C08091C60068E474E00E946D
:103440003D1502C08091C600FF91EF91BF91AF91F1
:103450009F918F917F916F915F914F913F912F91AC
:103460000F900BBE0F900FBE0F901F9018950F93EB
:103470001F93CF93DF93EC01E881F9810190F081F4
:10348000E02D6DE019958C01E881F9810190F081C2
:10349000E02D6AE0CE011995800F911FDF91CF9149
:1034A0001F910F9108956115710579F0FB0101904D
:1034B0000020E9F73197AF01461B570BDC01ED9176
:1034C000FC910280F381E02D199480E090E0089552
:1034D0008F929F92AF92BF92CF92DF92EF92FF9224
:1034E0000F931F93CF93DF93CDB7DEB7A1970FB69E
:1034F000F894DEBF0FBECDBF6C01142FE52FCB01BA
:10350000022F19A2223008F40AE07E0121E2E20E25
:10351000F11C802E912CA12CB12C612F7E2FA501A6
:1035200094010E946B2A029F1019112481E0E81A6D
:10353000F1081A3014F4105D01C0195CF701108312
:10354000122FE32FCA01232B242B252B31F7B70190
:10355000C6010E94531AA1960FB6F894DEBF0FBEA3
:10356000CDBFDF91CF911F910F91FF90EF90DF9032
:10357000CF90BF90AF909F908F900895CF92DF92A1
:10358000EF92FF92CF93DF936B017C010E94A60A1A
:10359000EB01C114D104E104F10479F00E94A60A00
:1035A0006C1B7D0B683E7340A0F381E0C81AD10804
:1035B000E108F108C851DC4FECCFDF91CF91FF90CB
:1035C000EF90DF90CF9008950895CF93DF931F92EF
:1035D000CDB7DEB7FC01848D958D292F22952F70F4
:1035E00030E021703327A9014627BA0171A360A3F7
:1035F00080FF2DC080916B028823E1F0868D978D2E
:10360000873453E8950719F08235924531F4672BDA
:1036100011F482E007C086E005C0672B11F48AE050
:1036200001C088E08983AE014F5F5F4F61E081E0B8
:1036300090E00AC0672B19F480E290E002C081E2BA
:1036400090E040E050E060E00E942B0B2AC0868DA5
:10365000978D833947E79407E1F040F4843521E002
:10366000920779F080329445C1F413C0863253E951
:10367000950779F0893025EB920759F08532924908
:1036800061F4660F771F660F771F636187E090E034
:1036900006C0626081E094E002C081E690E00E9492
:1036A000820C0F90DF91CF9108950F931F93CF93CA
:1036B000DF93EC01162F80916902811102C00E94F4
:1036C00007228B988A988091020187788093020163
:1036D000A5988EB1877C8EB9409102018D2F9927D4
:1036E0009C012370332755E0220F331F5A95E1F7D1
:1036F000242B209302014EB19C012C703327220F02
:10370000331F220F331F242B2EB944B39C01207189
:103710003327220F331F242B24BB4EB19C01207270
:1037200033273595279535952795242B2EB920914C
:103730000201807C9927F3E095958795FA95E1F74A
:10374000822B809302018998899A8091020187785F
:1037500080930201A5988EB1877C8EB920910201D9
:10376000CE0183709927A5E0880F991FAA95E1F7EC
:10377000822B809302012EB1CE018C709927880F85
:10378000991F880F991F822B8EB924B3CE018071A7
:103790009927880F991F822B84BB2EB1CE0180728E
:1037A00099279595879595958795822B8EB98091C8
:1037B0000201C07CDD2743E0D595C7954A95E1F726
:1037C000C82BC09302018998899A8A9A8091010135
:1037D0008778809301019D988DB1877C8DB961E0D8
:1037E00070E080E090E00E94BE1A889A88988898DD
:1037F0008898609100018CB1A2B34CB10091000196
:10380000889A889A889888988898E0910001FCB1F5
:1038100032B32CB1C0910001889A115017FFE5CF47
:10382000889A8B9A909101019867909301019D9AD3
:103830009DB198639DB9487050E0440F551F440FE7
:10384000551F087198E0099F80011124402B512BCE
:10385000A072B0E0B595A7954A2B5B2B807390E0E2
:103860009595879595958795482B592B607670E0AF
:10387000B5E075956795BA95E1F7462B572B542F10
:1038800044272870220F220F8C2F887198E0899F7F
:10389000E00111249C2F922B3072232F30E03595BC
:1038A0002795292B9F2F907396959695922B2E2FC7
:1038B0002076229526952770292BCA01822BDF912D
:1038C000CF911F910F910895FF920F931F93CF9364
:1038D000DF93EC0160E00E94551B8C0161E0CE019A
:1038E0000E94551BF82E62E0CE010E94551B20E07D
:1038F00030E0302F22271127002740E050E05F2DD5
:1039000060E070E0042B152B262B372B492F50E05D
:1039100060E070E0CB01BA01602B712B822B932BFE
:10392000DF91CF911F910F91FF9008950F931F93F7
:10393000CF93DF938C0160E00E94551BEC0161E0A6
:10394000C8010E94551BAC01CE01A0E0B0E0DC0133
:103950009927882760E070E08C019D01042B152BCE
:10396000262B372BC901B801DF91CF911F910F9101
:103970000895CF92DF92EF92FF92CF93DF936C0185
:10398000990FEE08FF08F7FE15C06DE28EEA94E08D
:103990000E949917EC0144275527BA014C195D097B
:1039A0006E097F092AE08EEA94E00E94681AC80F27
:1039B000D91F08C02AE0B701A6018EEA94E00E9450
:1039C000681AEC018EEA94E00E94371A8C0F9D1F52
:1039D000DF91CF91FF90EF90DF90CF9008950F93FC
:1039E0001F93CF93DF93EC018B0110161106B4F4F3
:1039F000FE01859194912496FE0132976591749110
:103A00008F3F2FEF920729F480E090E00E94BE1ACA
:103A100002C00E94820C04501109E7CFDF91CF91C0
:103A20001F910F910895DF92EF92FF920F931F93D2
:103A3000CF93DF93CDB7DEB768970FB6F894DEBFAC
:103A40000FBECDBF7C018B011016110654F5F70196
:103A500084913196D490F2E0EF0EF11C8F3741F44F
:103A60006D2D70E080E090E00E94BE1AD12C13C052
:103A70002E2DDE011196F701AD019E2F921B9D1593
:103A800020F494919D933196F8CFED0CF11C6D2D9F
:103A900090E00E942B0BED2DF0E032960E1B1F0BD9
:103AA000D3CF68960FB6F894DEBF0FBECDBFDF91BF
:103AB000CF911F910F91FF90EF90DF9008958F921B
:103AC0009F92AF92BF92CF92DF92EF92FF920F93AD
:103AD0001F93CF93DF9300D01F92CDB7DEB77C0149
:103AE0005B016A014901FC01868D978D8732F3E9FC
:103AF0009F0799F4F7018589823031F4F0E2CF0E07
:103B0000D11C005E1F4F1EC08330E1F420E2A20EE4
:103B1000B11C80E2880E911C15C08632954191F44B
:103B2000F701858980FF0EC0C801841B950B19F42D
:103B30000F5F1F4F07C06217730721F44B01880EF8
:103B4000991E8A01F701848D80FF3BC084A5B9824C
:103B5000AA829B828C82AE014F5F5F4F64E090E04F
:103B60000E942B0BF70180A9D982CA821B830C8388
:103B7000AE014F5F5F4F64E090E00E942B0B80919D
:103B80006B02882309F459C0F701868D978D85361D
:103B9000910509F052C0B982AA82AE014F5F5F4F12
:103BA00062E086A197A10E942B0BD982CA82AE0146
:103BB0004F5F5F4F62E0F70180A591A50E942B0B3C
:103BC0003CC0B501F70186A197A10E94820CB60105
:103BD000F70180A591A50E94820C8A149B0419F418
:103BE0000C151D0551F1F701848D85FF0EC08589E7
:103BF00080FF06C0102F0027C02AD12A860105C0E9
:103C0000982C8824A828B9284501B501F70184A576
:103C100095A50E94820CB601F70180A991A90E9486
:103C2000820CB401F70186A597A50E94820CB80109
:103C3000F70182A993A90E94820C0F900F900F9018
:103C40000F90DF91CF911F910F91FF90EF90DF9038
:103C5000CF90BF90AF909F908F900895AF92BF92FA
:103C6000CF92DF92EF92FF920F931F93CF93DF9348
:103C7000EC0180916A02882349F0C7018F7199276E
:103C8000880F991FE1ECEE22E82AF92A37FF05C0D8
:103C9000620F731F319521953109260F371F77FF6A
:103CA00002C060E070E0E885F9852E173F070CF44C
:103CB000F9015F01A61AB70A17FF05C0400F511F8F
:103CC000119501951109CA01800F911F57FF02C07C
:103CD00040E050E00A851B85801791070CF48C01A9
:103CE0006801C41AD50A015011099F0121503109F8
:103CF000CE010E945F1D8B988A988AA59BA5209172
:103D00000201277820930201A5982EB1277C2EB9B5
:103D100060910201292F3327A9014370552705E03F
:103D2000440F551F0A95E1F7462B409302016EB1EF
:103D3000A9014C705527440F551F440F551F462BA2
:103D40004EB964B3A90140715527440F551F462B46
:103D500044BB6EB1A90140725527559547955595BD
:103D60004795462B4EB940910201207C3327A3E0B2
:103D700035952795AA95E1F7242B20930201899880
:103D8000899A20910201277820930201A5982EB1EB
:103D9000277C2EB9409102019C0123703327B5E0A6
:103DA000220F331FBA95E1F7242B209302014EB165
:103DB0009C012C703327220F331F220F331F242B1B
:103DC0002EB944B39C0120713327220F331F242BBB
:103DD00024BB4EB19C01207233273595279535952C
:103DE0002795242B2EB920910201807C992763E02E
:103DF000959587956A95E1F7822B809302018998C2
:103E0000899A8A9AAC14BD042CF49A2D8B2D5601F4
:103E1000C92ED82E8F2D99279C01237033272295E8
:103E2000220F207EAC014C705527342F330F330FF7
:103E3000AC0140715527440FBC0176956795769586
:103E40006795562F587063E0969587956A95E1F7C8
:103E50008871B70163707727962F9295990F907E9E
:103E6000B7016C707727660F660FF701E071FF27C7
:103E70007E2F770FD701B695A795B695A795A87011
:103E8000F701B3E0F695E795BA95E1F71E2F1871A3
:103E90001C141D040CF043C0F501B0910201B77869
:103EA000B0930201A598BEB1B77CBEB9B091020132
:103EB000B22BB0930201BEB1B32BBEB9B4B3B42BD5
:103EC000B4BBBEB1B52BBEB9B0910201B82BB09353
:103ED00002018998899AB0910201B778B0930201E2
:103EE000A598BEB1B77CBEB9B0910201B92BB09311
:103EF0000201BEB1B62BBEB9B4B3B72BB4BBBEB1D1
:103F0000BA2BBEB9B0910201B12BB09302018998CE
:103F1000899A319711F6E1E0CE1AD108B9CF8B9A80
:103F20008C8D80FF08C08E8D9F8D8632954191F4D7
:103F30008D8980FF0FC00A851B85015011092885D6
:103F400039852150310940E050E060E070E0CE0159
:103F50000E945F1DDF91CF911F910F91FF90EF9015
:103F6000DF90CF90BF90AF900895AF92BF92CF9265
:103F7000DF92EF92FF920F931F93CF93DF935C0139
:103F80006B01EA01E090D804F090D9048091CA0452
:103F900080FF03C03EE2E32EF12C8091CC0490918F
:103FA000CD048230964119F42EE2E22EF12C8601E6
:103FB0009501A601B5018EEA94E00E945F1D8091F3
:103FC000CA0480FD0EC0B5018091D4049091D5043F
:103FD0000E94820CB6018091D6049091D7040E9471
:103FE000820C8B988A9880910201877880930201D5
:103FF000A5988EB1877C8EB9409102018F2D9927AB
:104000009C012370332755E0220F331F5A95E1F7A7
:10401000242B209302014EB19C012C703327220FD8
:10402000331F220F331F242B2EB944B39C01207160
:104030003327220F331F242B24BB4EB19C01207247
:1040400033273595279535952795242B2EB9209123
:104050000201807C9927F3E095958795FA95E1F721
:10406000822B809302018998899A80910201877836
:1040700080930201A5988EB1877C8EB920910201B0
:10408000C70183709927A5E0880F991FAA95E1F7CA
:10409000822B809302012EB1C7018C709927880F63
:1040A000991F880F991F822B8EB924B3C701807185
:1040B0009927880F991F822B84BB2EB1C70180726C
:1040C00099279595879595958795822B8EB980919F
:1040D000020130ECE322FF2493E0F594E7949A95F3
:1040E000E1F7E82AE09202018998899A8A9A8091F8
:1040F00001018778809301019D988DB1877C8DB9EE
:10410000A091CA04B091CB048091CC049091CD04CD
:10411000A6FD1EC0889A88988898889820910001EA
:104120002CB122B32CB120910001889AA0FD10C0BF
:10413000893872E1970761F0889A889888988898FA
:10414000209100012CB122B32CB120910001889A5A
:104150008131954161F4889A8898889888988091EF
:1041600000018CB182B38CB180910001889AAD01BD
:1041700044705527889A889888988898A4FF8CC09E
:10418000609100018CB192B37CB1309100016076F6
:10419000262F229526952770807386958695682F01
:1041A000622B9072892F90E095958795862B672FCB
:1041B0006870660F660F862B632F687128E0629F18
:1041C000B0011124682B889A889A889888988898D2
:1041D00070910001ECB132B3ACB190910001872F26
:1041E0008076782F7295769577708E2F807386956E
:1041F0008695872B3072E32FF0E0F595E795E82B55
:104200008A2F8870880F880F8E2B987178E0979F7F
:1042100090011124822B889A889A88988898889887
:1042200020910001ECB132B3ACB190910001207645
:10423000722F729576957770E073E695E6952E2F3E
:10424000272B3072E32FF0E0F595E795E22B2A2F2C
:104250002870220F220FE22B987178E0979F90012F
:1042600011242E2B889A8C7F452B59F0287FE8E06B
:104270008E9FC0011124922B669566956695862BBC
:104280007EC0687F38E0839FC0011124962B26955D
:1042900026952695822B73C0109100012CB132B364
:1042A0000CB1B0910001889A889A8898889888986B
:1042B000809100016CB192B3ECB1D0900001807696
:1042C000E82EF12C85E0F594E7948A95E1F7607388
:1042D00070E075956795759567956E297F29907241
:1042E000E92EF12CF594E794CB018E299F29E870F3
:1042F000F0E0EE0FFF1FEE0FFF1FBC016E2B7F2BB8
:104300008D2D8871E8E08E9FC0011124862B972B9C
:10431000889A612F6076762F7295769577702073E4
:1043200026952695622F672B3072232F30E0359526
:104330002795262B0870000F000F202B6B2F68711C
:1043400038E0639FB0011124262B922BA3FF03C0FA
:10435000982789279827452B91F0AC01407E57700C
:104360009C01232F3327269526952695242B352B24
:10437000982F8827990F990F990F822B932B2091B3
:104380006A02222391F0AC01407C9C012227347008
:1043900065E0369527956A95E1F78F73992796958D
:1043A0008795822B932B842B952B99838883889ACE
:1043B0008B9A809101018867809301019D9A8DB14C
:1043C00088638DB98091CA0480FD14C00091B8043F
:1043D0001091B904015011092091B6043091B7042D
:1043E0002150310940E050E060E070E08EEA94E056
:1043F0000E945F1D80E090E0DF91CF911F910F91AF
:10440000FF90EF90DF90CF90BF90AF90089581E044
:1044100080936902E1E0F1E08081886780839D9A62
:104420008DB188638DB9809A819A829A839A849A91
:104430008B9A889A899A8C9A62E370E080E090E087
:104440000E94BE1A8C9864E670E080E090E00E94C2
:10445000BE1A8C9A64E670E080E090E00E94BE1A7A
:1044600060E070E080EB90E00C94820C2F923F9221
:104470004F925F926F927F928F929F92AF92BF9274
:10448000CF92DF92EF92FF920F931F93CF93DF9320
:1044900000D01F921F92CDB7DEB7789484B58260AA
:1044A00084BD84B5816084BD85B5826085BD85B5D8
:1044B000816085BD80916E00816080936E00109256
:1044C00081008091810082608093810080918100D1
:1044D0008160809381008091800081608093800062
:1044E0008091B10084608093B1008091B0008160C0
:1044F0008093B000809191008260809391008091C0
:104500009100816080939100809190008160809300
:1045100090008091A10082608093A1008091A10011
:1045200081608093A1008091A00081608093A000B1
:10453000809121018260809321018091210181601D
:1045400080932101809120018160809320018091DE
:104550007A00846080937A0080917A0082608093F0
:104560007A0080917A00816080937A0080917A004D
:10457000806880937A001092C100E091A004F091CD
:10458000A10481E090E09C010090AC0402C0220FE5
:10459000331F0A94E2F72083E0919C04F0919D047C
:1045A0001082E0919E04F0919F042FEC20831092E2
:1045B000AD04E091A204F091A30440819C0100901D
:1045C000A80402C0220F331F0A94E2F7242B208391
:1045D000E091A204F091A30440819C010090A90401
:1045E00002C0220F331F0A94E2F7242B2083E091AC
:1045F000A204F091A30440819C010090AA0402C08F
:10460000220F331F0A94E2F7242B2083E091A204A7
:10461000F091A30420810090AB0402C0880F991F81
:104620000A94E2F780958223808360E080E090E046
:104630000E94551B883024E5920709F4D7C08032C8
:1046400024E5920709F4D5C08938994809F4D4C003
:1046500060E087E690E00E94551B8734974409F498
:10466000CEC081EA90E00E94961C613081E6780716
:1046700009F4C8C06F3F7F4F19F406E215E1EEC0A0
:104680008FEB90E00E94641C673523E8720709F401
:10469000BCC0613884E9780709F4BAC0613195E19A
:1046A000790709F4B8C0603225E1720709F4B6C091
:1046B000663285E1780709F3613895E1790709F4F5
:1046C000B0C06115744109F4AFC084ED90E00E9460
:1046D000961C6031734509F4AAC087ED90E00E94F2
:1046E000961C6133704809F4A5C08FEE90E00E94DB
:1046F000641C6732734909F4A0C08EEF90E00E94F9
:10470000961CBB27A92F982F872F8335904209F439
:1047100097C084E090E00E94961C9B01811124C008
:10472000211580E8380701F580910002909101027F
:10473000A091020289839A83AB83AE014F5F5F4FE2
:1047400063E089EB90E00E942B0B60E080ED90E04D
:104750000E94551B893929F08039C9F400E910E914
:104760007DC009E910E07AC0263295E1390709F4E5
:1047700084CF203F89E8380709F465C0223595E8E1
:10478000390709F463C021313C4A09F462C083ED62
:1047900090E00E94961CBB27A92F982F872F833665
:1047A000914909F459C083ED90E00E94961C8B0159
:1047B000872F7359723008F451C0883909F44EC0FC
:1047C000873709F44BC0863109F448C0033D110511
:1047D00009F444C0033D83ED180709F43FC060E0CD
:1047E00080E090E00E94551B8C0138C008E014E581
:1047F00035C000E214E532C009E812E12FC007E439
:1048000013E82CC003E619E129C007E513E826C028
:1048100001E814E923C001E115E120C000E215E13F
:104820001DC001E815E11AC004E118E617C000E157
:1048300013E514C001E310E811C007E213E90EC04C
:1048400003E510E20BC005E317E708C009E817E726
:1048500005C001E11CEA02C003E611E96BE372E066
:104860008CE894E00E94531AA80160E070E020E117
:104870008CE894E00E94681A8CE894E00E94371A51
:10488000033D93ED190711F401E814E90E94072292
:104890001092C9041092C8041093CD040093CC0464
:1048A000073523E8120709F499C108F0A5C00335BC
:1048B00090E2190709F4F3C108F047C0013185E11E
:1048C000180709F42CC1B0F40939110509F49EC187
:1048D00038F40130110509F04DC280E091E1B0C11A
:1048E000043521E0120709F40FC10530154109F420
:1048F000A5C140C2063295E1190709F428C180F428
:104900000032154109F036C283E194E09093CB0464
:104910008093CA0486E0E82EF12C00E71AE030C24A
:10492000013895E1190709F4CFC10230164109F0A9
:1049300021C283E094E09093CB048093CA0456E0B4
:10494000E52EF12C09EC19E01BC2043188E61807AA
:1049500009F421C108F5003123E5120709F403C168
:1049600078F40533154409F005C280E090E1909396
:10497000CB048093CA046CE970E08DE19EE0E4C151
:10498000083024E5120709F459C10930184609F026
:10499000F1C182E091E162C1033997E7190709F497
:1049A000D6C1A8F4033887E7180709F40CC1093801
:1049B000174709F0DFC183E194E09093CB04809323
:1049C000CA04A1E4EA2EF12C0EE11AE0D9C106399D
:1049D00027E7120709F493C10133104809F0CAC14F
:1049E00083E194E19093CB048093CA04F2E1EF2E2B
:1049F000F12C0CE01AE0C4C1083393E9190709F45B
:104A000054C170F5073283E9180709F430C1B8F4CE
:104A1000023023E9120709F445C138F4003910497E
:104A200009F0A8C183E194E1DBC0003223E9120759
:104A300009F404C10532134909F40BC19BC10932C1
:104A400093E9190709F434C108F403C1013383E978
:104A5000180709F401C10533134909F4FDC08AC1DF
:104A6000093824E91207C8F5073884E9180708F05F
:104A700049C1013894E9190709F429C190F4005497
:104A800013490230110508F075C183E194E0909359
:104A9000CB048093CA0435E6E32EF12C01E619E03D
:104AA0006FC10638144909F065C183E094E0909322
:104AB000CB048093CA0480EE91E09093B504809378
:104AC000B40480E491E09093B3048093B2049BE338
:104AD000E92EF12C01EE18E053C1053095EB1907D2
:104AE00009F428C138F401311C4A09F043C183E1BB
:104AF00094E1E0C0093095EB190709F428C10530AD
:104B0000154C09F417C136C182E090E19093CB04B3
:104B10008093CA046CE970E089EB9EE015C183E0E4
:104B200090E09093CB048093CA0480EE91E0909340
:104B3000B5048093B40480E491E09093B30480932F
:104B4000B20493E0E92EF12C06E71AE019C183E1E3
:104B500094E09093CB048093CA040CE0E02EF12CF7
:104B600004E61AE00DC183E19EE09093CB048093AC
:104B7000CA0480EE91E09093B5048093B40480E47D
:104B800091E09093B3048093B20412E0E12EF12CF3
:104B900002E61AE0F5C083E094E09093CB048093A2
:104BA000CA0480EE91E09093B5048093B40480E44D
:104BB00091E09093B3048093B204B3E0EB2EF12C18
:104BC0000FE51AE0DDC082E091E19093CB04809381
:104BD000CA0460E970E08DE89DE0B6C083E094E12E
:104BE0009093CB048093CA0480EE91E09093B50437
:104BF0008093B40480E491E09093B3048093B20472
:104C0000E2E0EE2EF12C0AE01AE0BAC083E194E172
:104C10009093CB048093CA0480EE91E09093B50406
:104C20008093B40480E491E09093B3048093B20441
:104C30007DE1E72EF12C0DEE19E0A2C084E090E1B9
:104C40009093CB048093CA0468ED70E085EB9CE000
:104C50007BC080E091E102C080E090E19093CB04C2
:104C60008093CA046CEC70E089EE9BE06DC083E039
:104C700094E09093CB048093CA0480E991E09093F0
:104C8000B5048093B40480EF90E09093B3048093D4
:104C9000B2046EE1E62EF12C0FEC19E071C087E151
:104CA00094E108C083E094E005C083E194E002C091
:104CB00083E096E19093CB048093CA0443E0E42E12
:104CC000F12C06EC19E05CC083E194E002C087E0BF
:104CD00094E09093CB048093CA0480EE91E090938B
:104CE000B5048093B40480E491E09093B30480937E
:104CF000B20425E4E22EF12C0CE119E041C083E07E
:104D000094E002C083E194E09093CB048093CA04C2
:104D100080EE91E09093B5048093B40480E491E038
:104D20009093B3048093B2048BE2E82EF12C06EB4F
:104D300018E026C088E090E19093CB048093CA04E9
:104D400060EB70E089E39BE00E94EF1C17C080E0FD
:104D500090E19093CB048093CA0460EC70E089E703
:104D60009AE00E94EF1C80E991E09093B504809353
:104D7000B40404C01092B3041092B20400E010E036
:104D80002091CB04822F82958F7090E081709927BB
:104D90009093CF048093CE040115110581F069E052
:104DA00070E08DEA98E00E94131DB701C8010E94CF
:104DB000131D66E070E087EA98E00E94131D60E032
:104DC0008EEA94E00E94EF0E60E08EEA94E00E948A
:104DD000E51A8091CC049091CD048838944981F5EE
:104DE00010926A0220EE3FEF40E050E060E070E099
:104DF0008EEA94E00E94750DAE014F5F5F4F60E058
:104E000070E080E090E00E94B51F89819A818F3127
:104E10009F4FB1F486E08983AE014F5F5F4F61E041
:104E20008AE390E00E942B0B8091CA049091CB04FE
:104E30008F7E9093CB048093CA0481E080936A02B2
:104E400061E08EEA94E00E94EF0E60E070E08EEA8E
:104E500094E00E94620A8091B6049091B7040E9487
:104E6000B91C8091B8049091B9040E94B91C73E0F8
:104E7000C72EE12CF12C0FEF1FEF24E544E650E0A4
:104E800068EC70E08EEA94E00E947F152FEF3FEF10
:104E900042E350E062E370E08EEA94E00E94750D18
:104EA000AE014F5F5F4F62E370E082E390E00E94EB
:104EB000B51FEE24EA94FE2C04E610E024E630E070
:104EC00042E350E062E370E08EEA94E00E948212D6
:104ED00000EE17E022E330E042E350E062E370E0EE
:104EE0008EEA94E00E947F0A26E930E042E350E037
:104EF00062E370E08EEA94E00E94920AFFEEEF2EE9
:104F0000FBEFFF2E04E110E024E130E044E650E046
:104F100064E670E08EEA94E00E942312E12CA8EF90
:104F2000FA2E0AE010E02AE030E048EC50E068ECAD
:104F300070E08EEA94E00E942E1E20EE3FEF48E7DC
:104F400050E064E670E08EEA94E00E94EC1320EEFC
:104F50003FEF40E550E064E670E08EEA94E00E94A6
:104F6000EC1320EE3FEF44E650E068E770E08EEA95
:104F700094E00E94EC1320EE3FEF44E650E060E541
:104F800070E08EEA94E00E94EC13612C712C81E0B9
:104F900090E09D838C83B4E14B2E512C18ED212E93
:104FA00033243A940DEEC02EDD24DA948FEF681A84
:104FB000780A8C819D8102969D838C83C80ED91EB0
:104FC000430194E6890E911C20EE3FEF720184E6C6
:104FD000E80EF11CA701B4018EEA94E00E94EC13E4
:104FE00064E6A62EB12CA618B70820EE3FEFA70165
:104FF000B5018EEA94E00E94EC1320EE3FEF04E648
:1050000010E004191509A801B4018EEA94E00E9489
:10501000EC1320EE3FEFA801B5018EEA94E00E9468
:10502000EC1320EE3FEFA401B7018EEA94E00E945A
:10503000EC1320EE3FEFA401B8018EEA94E00E9449
:10504000EC1320EE3FEFA501B7018EEA94E00E9439
:10505000EC1320EE3FEFA501B8018EEA94E00E9428
:10506000EC13641475045CF4D7FCA0CF91E0491AEA
:10507000510822E0220E311CC20CD31C97CF00EE47
:1050800017E029E230E048E151E06CE271E08EEA9D
:1050900094E00E94E013AA24A394B12CC12CD12C3B
:1050A00044E1E42EF12C88ED9FEF9D838C835DEE2F
:1050B000852E99249A949FEFC91AD90A22E0A20E4C
:1050C000B11C8A0C9B1C1701220C331C8FEF281A71
:1050D000380AB601645D7E4F00EE17E091019CE254
:1050E000492E552453944E185F08A2018EEA94E08D
:1050F0000E94E0132CE2622E772473946C187D08D2
:105100009501A301B701645D7E4F8EEA94E00E9491
:10511000E0139101A201B3018EEA94E00E94E01332
:105120009501A301B2018EEA94E00E94E013CE142F
:10513000DF046CF497FCBFCF91E0E91AF1088C8191
:105140009D8102969D838C83880E991EB4CF04E6C0
:1051500010E01093BB040093BA041093BD040093B5
:10516000BC048091B6049091B7040E94B91C809150
:10517000B8049091B9040E94B91C1093BB04009329
:10518000BA0488EC90E09093BD048093BC048FEF48
:105190009FEF9093BF048093BE041092C1041092BD
:1051A000C00481E08093C2048091C6049091C7043A
:1051B000892B31F48EEC90E09093BD048093BC0475
:1051C00085E59FE09093C7048093C60463E472E092
:1051D0008EEA94E00E94531A6DE472E08CE894E049
:1051E0000E94531A8CE894E00E94371A80919A0426
:1051F00090919B04FC01E05CFF4FDC01AE5BBF4F74
:10520000408151812D913C91119742175307C1F76D
:10521000E091A204F091A304308181E090E0AC0120
:105220000090A80402C0440F551F0A94E2F7242FEF
:10523000209523232083E091A204F091A3043081E0
:10524000AC010090A90402C0440F551F0A94E2F774
:10525000242F209523232083E091A204F091A3041E
:105260003081AC010090AA0402C0440F551F0A947B
:10527000E2F7242F209523232083E091A204F091CC
:10528000A30420810090AB0402C0880F991F0A94E8
:10529000E2F780958223808380919804909199040D
:1052A000FC01EE5BFF4F20813181329731832083F7
:1052B00080E090E00F900F900F900F900F90DF9193
:1052C000CF911F910F91FF90EF90DF90CF90BF9003
:1052D000AF909F908F907F906F905F904F903F9096
:1052E0002F900895CF92DF92EF92FF92ECE8F4E0D6
:1052F0001382128288EEC82E83E0D82EE12CF12C86
:10530000C482D582E682F78267E072E071836083AF
:1053100088E494E09587848784E094E09787868783
:1053200085EC90E0918B808B84EC90E0938B828B6A
:1053300080EC90E0958B848B81EC90E0978B868B52
:1053400082EC90E0918F808F86EC90E0938F828F3B
:1053500044E0448F33E0358F27E0268F95E0978F28
:1053600081E080A3E6E2F5E013821282C482D58256
:10537000E682F78271836083A0ECB3E0B587A487EF
:10538000ACE7B3E0B787A687ADECB0E0B18BA08BFC
:10539000ACECB0E0B38BA28BA8ECB0E0B58BA48BE7
:1053A000A9ECB0E0B78BA68BAAECB0E0B18FA08FD0
:1053B000AEECB0E0B38FA28F448F358F268F978FDE
:1053C00080A3E4E0F5E013821282C482D582E682F3
:1053D000F78271836083A8E3B3E0B587A487A4EF65
:1053E000B2E0B787A687A5EDB0E0B18BA08BA4EDA6
:1053F000B0E0B38BA28BA0EDB0E0B58BA48BA1ED98
:10540000B0E0B78BA68BA2EDB0E0B18FA08FA6ED78
:10541000B0E0B38FA28F448F358F268F978F80A3F4
:10542000E2EEF4E013821282C482D582E682F78231
:105430007183608360EB72E0758764876CE672E06D
:105440007787668765E371E0718B608B64E371E059
:10545000738B628B60E371E0758B648B61E371E049
:10546000778B668B62E371E0718F608F66E371E02A
:10547000738F628F448F358F268F978F80A3EEEACC
:10548000F4E01382128240EF50E05583448320E41D
:1054900031E0378326835187408733872287158AF7
:1054A0001586148617861686848B2FEF3FEF338B75
:1054B000228B318B208B868B178A118E108E87E181
:1054C00092E091838083FF90EF90DF90CF900895DA
:1054D000F8940C94952AA1E21A2EAA1BBB1BFD017D
:1054E0000DC0AA1FBB1FEE1FFF1FA217B307E407C3
:1054F000F50720F0A21BB30BE40BF50B661F771F1B
:10550000881F991F1A9469F76095709580959095FA
:105510009B01AC01BD01CF010895EE0FFF1F881F55
:0E5520008BBF0790F691E02D1994F894FFCF01
:10552E00FF835700000000A41457152D15F1141118
:10553E0015E6140000000099175715750DC313ECEE
:10554E0013C413E013D413F313C313EF0EE51A921F
:10555E000A7F0A2E1E620A821223124944203D201F
:10556E00307800434D505554203237350046696E21
:10557E006973686564207468652064656D6F2100C9
:00000001FF
