:100000000C942E070C945F070C945F070C945F0709
:100010000C945F070C945F070C945F070C945F07C8
:100020000C945F070C945F070C945F070C945F07B8
:100030000C945F070C945F070C945F070C945F07A8
:100040000C945F070C945F070C945F070C945F0798
:100050000C945F070C945F070C945F070C9478096D
:100060000C945F070C9413090C943B080C945F07E5
:100070000C945F070C945F070C945F070C945F0768
:100080000C945F070C945F070C945F070C945F0758
:100090000C94E0080C94FC070C945F070C945F0729
:1000A0000C945F070C945F070C945F070C945F0738
:1000B0000C945F070C945F070C945F070C945F0728
:1000C0000C945F070C945F070C945F070C94AD08C9
:1000D0000C94BD070C945F070C947A080C947A1169
:1000E0000C945F077A157D1570157415B41581157C
:1000F00085158B158F15931599159D15A115B4159B
:10010000A715AB15AF150C946F130C9498130C94A2
:10011000BF1A0C947A150C94720A0C94A0070C94D4
:100120008B150C94C2090C94412C0C9480130C94E4
:10013000AB150C94E9090C94D8180C9474150C9414
:1001400070150C949D150C94AF150C94A1150C947E
:10015000CF110C94CC0C0C94360A0C949A1C0C9471
:100160002B0A0C9470130C949F130C94560A0C9445
:1001700050140C942E120C94B4150C9481150C94FC
:1001800093150C9479140C94A7150C9499150C9450
:100190008F150C948C130C9485150C947D150C9470
:1001A000460E0C94D50911007F96290001007F9618
:1001B00028003A0155C0021010C10141C5040022B7
:1001C0008040360168B00100B102B011B40102B63E
:1001D0000302023BB701C63A0155F704A9512C822C
:1001E000C0020D0DC1024300C20100C50400480059
:1001F00048B40100B60302023BE00F0F211C0B0EB6
:1002000008499838091103141000E10F0F2F2B0C27
:100210000E06477637071104231E00B00100B30411
:1002200002000000B40100D003074218D103000708
:1002300010D2020102D3020102D4020102C005124F
:100240003B000211C103101088C50103C60102C89A
:100250000C003236450616377577540C00CC010079
:10026000F603010100CF03008130ED046403128125
:10027000E803851078CB05392C003402F70120EA19
:10028000020000B00100B102001BB40100C0012156
:10029000C10111C5023F3CC701B5360148F201005A
:1002A000260101E00F0F26240B0E0954A8460C1757
:1002B000090F0700E10F00191B0410072A47390333
:1002C000060630380F360100B80101C0010EB0013A
:1002D00000C10410100202C006003500000102C572
:1002E0000104D2020104CA0100EA0180B903FF83BC
:1002F000577F967F96B60125C0065050013C1E08D8
:10030000B4070240002A2A0D787F01F20B1616036B
:100310000808080810041616FD03110235B2050C72
:100320000C003333B70135BB012BC00104C20201FD
:10033000FFC30111C40120C6010FD002A4A1E00E29
:10034000D000050E150D3743470915121619E10E99
:10035000D000050D0C062D44400E1C1816193A014C
:10036000557F0AB00103E2013FC00122E20100B063
:100370000100C0010AB00100000000000000000000
:100380000000000000000000FFFF0F0000040062FA
:10039000080008080003000C01030B5A02030609B9
:1003A0000303171004030023050300170603096362
:1003B0000703090C08030C10090332221000160071
:1003C00011000101120000001300010000013003C0
:1003D000010137020301000D800200610201B0C17A
:1003E000FFFF320001000001020000010300301095
:1003F000090001000C000000900000800F000000C8
:10040000100200001102EF001202000013028F011F
:10041000000500000105000002055F000104010065
:1004200004040000FFFF320007000001FFFF32005C
:1004300000020000010200000000000000000000B7
:100440000000000000000100A4000100FFFF0A00FE
:10045000600000270800080830001402310015373A
:10046000320004063300160E340011223500001548
:1004700036000785370007143800031439002000C0
:1004800090001500100010041100370229004600EA
:100490002A00460007000000120089011300001125
:1004A000FFFF96001200B9010100000102000002E6
:1004B00003003010090001000A0000000D000000D8
:1004C0000E003000610001006A00000080000000A2
:1004D0008100000082005F0092000001930001078C
:1004E000FFFF500007000001E500F0780100000167
:1004F00002000002030030100400000005000000AC
:1005000008000702090000000A0000000C000000BB
:100510000D0000000F000000100000001100070097
:10052000120000001300000007000100FFFFC800D8
:100530001000901611002702FFFF320012000D007C
:10054000FFFF32001300001229000A002B000D00EB
:10055000FFFF3200200000002100000030000000FA
:100560003100040432000300350005043600080899
:100570003700070438000303390007073C0004056F
:100580003D00080860000027610001006A000000CB
:100590008000000081000000820000008300000055
:1005A0008400000085000000900010009200000010
:1005B00007003301E5000080000001000100000198
:1005C00002000007030030100400000008000202CF
:1005D000090000000A0000000C0000000D000000EF
:1005E0000F000000100000001100070012000000C2
:1005F00013000000FFFF32001000B01711000700C9
:10060000FFFF0A0012003A01FFFF0A001300001A60
:1006100029000C00FFFF0A00300000003100050532
:1006200032000400350006003600070737000501D8
:1006300038000200390007073C0004073D000708A6
:10064000600000A7610001006A00000021000000B6
:1006500020000000800000008100000082000000F7
:10066000830000008400000085000000900010005E
:100670009200000093000300950010019700000015
:100680009800000007007301FFFF3200FF00010027
:10069000F300080000000100010000010200000753
:1006A00003003010080002030900000010000000E1
:1006B000110007001200000013000000FFFF3200CD
:1006C0001000B014FFFF0A0011000700FFFF0A002E
:1006D00012008E001300000C29001500FFFF0A0015
:1006E0003000000031000701320000003500030235
:1006F000360002043700000038000702390000000D
:100700003C0003023D000304600000A761000100FB
:100710009000290007003301FFFF32001500300070
:100720009A0010001100200010002834120002006E
:1007300013003810FFFF280012001200FFFF2800EE
:100740001000203413004530FFFF46003000000049
:1007500031000204320007033300040334000400B4
:10076000350001043600070737000503380010067E
:1007700039001006010000010200000303003010E0
:10078000080008080A000800600000276100010056
:1007900090003E019200000193000001A000003093
:1007A000A30010000700010007002100070023003C
:1007B000070033000700330111001A001200213135
:1007C00013006C001400494210000008FFFF0A00EB
:1007D00011001A01FFFF0A0011001A03FFFF0A00AF
:1007E00011001A07FFFF0A0011001A0FFFFF0A008D
:1007F00011003A0FFFFF1E00010028010200000156
:100800000300301007001210080003030B00001152
:100810000C0000000F00011815002000500001011D
:10082000510003065200080453000000540005065E
:100830005500060456000303570003035800100038
:100840005900001007001200FFFF280007001300E6
:100850000700170000002100240027002A002D00B7
:100860003000330001010000040107010A0100000B
:100870002200250028002B002E0031003400020148
:100880000000050108010B0105050505070508081D
:100890000808020202020A0A08080404040401010A
:1008A000010101010101030303030303030304071F
:1008B00007070C0C0C0C0C0C0C0C020202020606B6
:1008C0000606060606060B0B0B0B0B0B0B0B0102A9
:1008D0001020200808102040102040800201020152
:1008E000080402010102040810204080804020100A
:1008F0000804020180040201804020100804020163
:1009000008040201010204081020408001020408CA
:10091000102040800000090A02080B0C0D07060396
:1009200004010000000000000000000000000000C2
:1009300000000000000000000000000000000000B7
:1009400011100F0000000000000000000000000077
:100950000000000000000000000000000000003E59
:100960005B4F5B3E3E6B4F6B3E1C3E7C3E1C183C1F
:100970007E3C181C577D571C1C5E7F5E1C00183C7B
:100980001800FFE7C3E7FF0018241800FFE7DBE7C4
:10099000FF30483A060E2629792926407F050507AB
:1009A000407F05253F5A3CE73C5A7F3E1C1C080807
:1009B0001C1C3E7F14227F22145F5F005F5F0609CC
:1009C0007F017F006689956A606060606094A2FF25
:1009D000A29408047E040810207E201008082A1C17
:1009E00008081C2A08081E101010100C1E0C1E0CE3
:1009F00030383E3830060E3E0E0600000000000083
:100A0000005F00000007000700147F147F14242AF1
:100A10007F2A1223130864623649562050000807C3
:100A20000300001C2241000041221C002A1C7F1CE4
:100A30002A08083E080800807030000808080808E6
:100A4000000060600020100804023E5149453E004D
:100A5000427F400072494949462141494D331814AB
:100A6000127F1027454545393C4A494931412111FA
:100A700009073649494936464949291E00001400EC
:100A8000000040340000000814224114141414140F
:100A9000004122140802015909063E415D594E7C6D
:100AA0001211127C7F494949363E414141227F4122
:100AB00041413E7F494949417F090909013E414180
:100AC00051737F0808087F00417F41002040413F6B
:100AD000017F081422417F404040407F021C027F7A
:100AE0007F0408107F3E4141413E7F090909063ECF
:100AF0004151215E7F09192946264949493203019E
:100B00007F01033F4040403F1F2040201F3F4038AF
:100B1000403F631408146303047804036159494D8A
:100B200043007F4141410204081020004141417FC0
:100B30000402010204404040404000030708002036
:100B4000545478407F284444383844444428384436
:100B500044287F385454541800087E090218A4A46D
:100B60009C787F0804047800447D40002040403D8C
:100B7000007F1028440000417F40007C0478047806
:100B80007C080404783844444438FC182424181899
:100B9000242418FC7C0804040848545454240404F5
:100BA0003F44243C4040207C1C2040201C3C4030E2
:100BB000403C44281028444C9090907C4464544C11
:100BC000440008364100000077000000413608006C
:100BD00002010204023C2623263C1EA1A161123A16
:100BE0004040207A38545455592155557941225462
:100BF000547842215554784020545579400C1E5267
:100C0000721239555555593954545459395554540B
:100C1000580000457C410002457D420001457C4072
:100C20007D1211127DF0282528F07C5455450020B6
:100C300054547C547C0A097F4932494949323A4428
:100C400044443A324A4848303A4141217A3A424093
:100C50002078009DA0A07D3D4242423D3D40404065
:100C60003D3C24FF2424487E4943662B2FFC2F2B38
:100C7000FF0929F620C0887E0903205454794100D9
:100C800000447D413048484A32384040227A007A58
:100C90000A0A727D0D19317D2629292F2826292936
:100CA000292630484D402038080808080808080858
:100CB000382F10C8ACBA2F102834FA00007B00007F
:100CC00008142A142222142A14085500550055AA83
:100CD00055AA55AAFF55FF55FF000000FF00101050
:100CE00010FF00141414FF001010FF00FF1010F08C
:100CF00010F0141414FC001414F700FF0000FF009F
:100D0000FF1414F404FC141417101F10101F101FEC
:100D10001414141F00101010F0000000001F101019
:100D200010101F10101010F010000000FF10101015
:100D3000101010101010FF10000000FF140000FF32
:100D400000FF00001F10170000FC04F4141417101B
:100D5000171414F404F40000FF00F714141414140E
:100D60001414F700F7141414171410101F101F1484
:100D70001414F4141010F010F000001F101F0000E5
:100D8000001F14000000FC140000F010F01010FF11
:100D900010FF141414FF141010101F00000000F0B6
:100DA00010FFFFFFFFFFF0F0F0F0F0FFFFFF00008B
:100DB000000000FFFF0F0F0F0F0F3844443844FCB2
:100DC0004A4A4A347E02020606027E027E026355C9
:100DD0004941633844443C04407E201E2006027E84
:100DE000020299A5E7A5991C2A492A1C4C72017296
:100DF0004C304A4D4D303048784830BC625A463D00
:100E00003E494949007E0101017E2A2A2A2A2A44B4
:100E1000445F444440514A444040444A51400000E9
:100E2000FF0103E080FF000008086B6B08361236F4
:100E30002436060F090F06000018180000001010D5
:100E4000003040FF0101001F01011E00191D171293
:100E5000003C3C3C3C0000000000412C11241FBE23
:100E6000CFEFD1E2DEBFCDBF00E00CBF12E0A0E0CB
:100E7000B2E0E8EEFAE500E00BBF02C007900D9289
:100E8000A834B107D9F727E0A8E4B2E001C01D9269
:100E9000A438B207E1F717E0CEE2D7E000E006C0E1
:100EA00021970109802FFE010E94502DCD32D107DC
:100EB00080E00807A9F70E94FF230C944D2D0C94A5
:100EC0000000FB01E05CFF4F20813181DB01AE5B64
:100ED000BF4F4D915C912F5F3F4F2F7333274217C8
:100EE000530741F040815181DB01A40FB51F8C9362
:100EF0003183208308953FB7F894809150029091F8
:100F00005102A0915202B091530226B5A89B05C090
:100F10002F3F19F00196A11DB11D3FBFBA2FA92F78
:100F2000982F8827820F911DA11DB11DBC01CD01F5
:100F300042E0660F771F881F991F4A95D1F70895E1
:100F4000EF92FF920F931F93DC011A960D911C9163
:100F50001B9718962D913C911997ED91FC91048C5B
:100F6000F58DE02D7B0140E050E060E070E01995E8
:100F70001F910F91FF90EF9008951F920F920FB65F
:100F80000F9211240BB60F922F933F938F939F9341
:100F9000EF93FF9320916F0530917005809171055B
:100FA000909172052817390731F48091D1008F7D17
:100FB0008093D10014C0E0917105F0917205E15D5C
:100FC000FA4F2081809171059091720501968F737F
:100FD000992790937205809371052093D600FF9115
:100FE000EF919F918F913F912F910F900BBE0F909A
:100FF0000FBE0F901F9018951F920F920FB60F9271
:1010000011240BB60F922F933F938F939F93EF93DF
:10101000FF932091F7053091F8058091F9059091A3
:10102000FA052817390731F48091C9008F7D809324
:10103000C90014C0E091F905F091FA05E954FA4F9E
:1010400020818091F9059091FA0501968F73992777
:101050009093FA058093F9052093CE00FF91EF91CC
:101060009F918F913F912F910F900BBE0F900FBECC
:101070000F901F9018951F920F920FB60F92112488
:101080000BB60F922F933F938F939F93EF93FF9302
:1010900020917F0630918006809181069091820692
:1010A0002817390731F48091C1008F7D8093C100EA
:1010B00014C0E0918106F0918206E15CF94F208135
:1010C000809181069091820601968F739927909363
:1010D0008206809381062093C600FF91EF919F9135
:1010E0008F913F912F910F900BBE0F900FBE0F90DD
:1010F0001F9018951F920F920FB60F9211240BB6E6
:101100000F922F933F934F935F936F937F938F93A0
:101110009F93AF93BF93EF93FF938091300182FD34
:1011200007C0809136016BEE74E00E94610702C037
:1011300080913601FF91EF91BF91AF919F918F9177
:101140007F916F915F914F913F912F910F900BBEC7
:101150000F900FBE0F901F9018951F920F920FB611
:101160000F9211240BB60F922F933F934F935F93DF
:101170006F937F938F939F93AF93BF93EF93FF935F
:101180008091D00082FD07C08091D60063E775E0B2
:101190000E94610702C08091D600FF91EF91BF913C
:1011A000AF919F918F917F916F915F914F913F91FF
:1011B0002F910F900BBE0F900FBE0F901F901895A0
:1011C0001F920F920FB60F9211240BB60F922F930E
:1011D0003F934F935F936F937F938F939F93AF93BF
:1011E000BF93EF93FF938091C80082FD07C0809169
:1011F000CE006BEF75E00E94610702C08091CE00C7
:10120000FF91EF91BF91AF919F918F917F916F91DE
:101210005F914F913F912F910F900BBE0F900FBE9A
:101220000F901F9018951F920F920FB60F921124D6
:101230000BB60F922F933F934F935F936F937F93D0
:101240008F939F93AF93BF93EF93FF938091C000D1
:1012500082FD07C08091C60063E876E00E946107C6
:1012600002C08091C600FF91EF91BF91AF919F9115
:101270008F917F916F915F914F913F912F910F903F
:101280000BBE0F900FBE0F901F901895CF92DF925C
:10129000EF92FF92CF93DF936B017C010E947B075B
:1012A000EB01C114D104E104F10479F00E947B0741
:1012B0006C1B7D0B683E7340A0F381E0C81AD10817
:1012C000E108F108C851DC4FECCFDF91CF91FF90DE
:1012D000EF90DF90CF9008952FB7F89460914C0273
:1012E00070914D0280914E0290914F022FBF089550
:1012F0001F920F920FB60F9211242F933F938F934B
:101300009F93AF93BF9380914C0290914D02A09117
:101310004E02B0914F0230914B0223E0230F2D3744
:1013200020F40196A11DB11D05C026E8230F0296E9
:10133000A11DB11D20934B0280934C0290934D024E
:10134000A0934E02B0934F028091500290915102AF
:10135000A0915202B09153020196A11DB11D80933C
:10136000500290935102A0935202B0935302BF9146
:10137000AF919F918F913F912F910F900FBE0F9042
:101380001F901895EF92FF920F931F93DC01ED9140
:10139000FC91048CF58DE02D780101E010E01995A9
:1013A0001F910F91FF90EF900895EF92FF920F938E
:1013B0001F93DC01ED91FC91048CF58DE02D7801FB
:1013C000890121E030E019951F910F91FF90EF9076
:1013D00008950F931F93CF93DF93FC01A685B785E4
:1013E0008D01005C1F4FE8018881998101968F7300
:1013F0009927AD014E5B5F4FEA012881398128179B
:101400003907D1F3E80128813981A20FB31F6C930A
:10141000A685B785A05CBF4F11969C938E93A68935
:10142000B7892C9181E090E0078C02C0880F991F4A
:101430000A94E2F7822B8C9381E081A30488F589DA
:10144000E02D80818064808381E090E0DF91CF9106
:101450001F910F910895FC0181A1882329F0A4898F
:10146000B5898C9186FFFBCF11A20895FC01A4855C
:10147000B585FD01E05CFF4F20813181329680818E
:1014800091812817390779F080819181A80FB91FC0
:101490008C91208131812F5F3F4F2F733327318310
:1014A000208390E008958FEF9FEF0895DC011C9654
:1014B000ED91FC911D97DF01A05CBF4F2D913C91F8
:1014C000119712968D919C9111972817390739F031
:1014D0008D919C91E80FF91F808190E008958FEF26
:1014E0009FEF0895FC0124853585F901E05CFF4FED
:1014F00080819181329620813181821B930B8F7381
:10150000992708958B988A98209102012778209333
:101510000201A5982EB1277C2EB970910201292FC6
:101520003327F901E370FF27A5E0EE0FFF1FAA950F
:10153000E1F7E72BE09302017EB1F901EC70FF27A0
:10154000EE0FFF1FEE0FFF1FE72BEEB974B3F9018B
:10155000E071FF27EE0FFF1FE72BE4BB7EB1F9011F
:10156000E072FF27F595E795F595E795E72BEEB93E
:1015700070910201207C3327E3E035952795EA95A9
:10158000E1F7272B209302018998899A2091020183
:10159000277820930201A5982EB1277C2EB970914F
:1015A00002019C0123703327F5E0220F331FFA95C7
:1015B000E1F7272B209302017EB19C012C70332789
:1015C000220F331F220F331F272B2EB974B39C0118
:1015D00020713327220F331F272B24BB7EB19C01A0
:1015E000207233273595279535952795272B2EB9CA
:1015F000709102019C01207C3327F3E035952795FB
:10160000FA95E1F7272B209302018998899A8A9A03
:10161000FA01A0915A027FEF760F16160CF0C7C0A0
:10162000219130910201377830930201A5983EB1A3
:10163000377C3EB960910201322F3370B0E23B9F9C
:10164000A0011124462B409302016EB1322F3C7051
:10165000B4E03B9FA0011124462B4EB944B3322F76
:101660003071330F342B34BB6EB1322F3072432FB5
:1016700050E05595479555954795462B4EB9309175
:101680000201207C269526952695232B2093020186
:101690008998899A711102C0672FBDCFAA23E1F3FF
:1016A00001968A9820910201277820930201A5983B
:1016B0002EB1277C2EB960910201292F3327A90171
:1016C00043705527B5E0440F551FBA95E1F7462BF7
:1016D000409302016EB1A9014C705527440F551F6C
:1016E000440F551F462B4EB964B3A90140715527CD
:1016F000440F551F462B44BB6EB1A90140725527BC
:101700005595479555954795462B4EB94091020101
:10171000207C332753E0359527955A95E1F7242B04
:10172000209302018998899A2091020127782093B9
:101730000201A5982EB1277C2EB9409102019C018F
:101740002370332765E0220F331F6A95E1F7242BBE
:10175000209302014EB19C012C703327220F331FBE
:10176000220F331F242B2EB944B39C012071332741
:10177000220F331F242B24BB4EB19C012072332730
:101780003595279535952795242B2EB94091020143
:101790009C01207C3327B3E035952795BA95E1F776
:1017A000242B209302018998899A8A9A75CF8B9A63
:1017B00008958B988A98E2E0F1E0208127782083D1
:1017C000A5982EB1277C2EB9A081292F3327A901F6
:1017D00043705527B5E0440F551FBA95E1F74A2BE2
:1017E0004083AEB1A9014C705527440F551F440FDB
:1017F000551F4A2B4EB9A4B3A90140715527440F78
:10180000551F4A2B44BBAEB1A901407255275595CF
:101810004795559547954A2B4EB94081207C3327F3
:1018200053E0359527955A95E1F7242B2083899825
:10183000899A208127782083A5982EB1277C2EB9FC
:1018400040819C0123703327A5E0220F331FAA9506
:10185000E1F7242B20834EB19C012C703327220FFB
:10186000331F220F331F242B2EB944B39C01207148
:101870003327220F331F242B24BB4EB19C0120722F
:1018800033273595279535952795242B2EB920811B
:10189000807C9927B3E095958795BA95E1F7822BDF
:1018A00080838998899A8A9A808187788083A5988D
:1018B0008EB1877C8EB94081872F99279C01237038
:1018C000332755E0220F331F5A95E1F7242B20834D
:1018D0004EB19C012C703327220F331F220F331F70
:1018E000242B2EB944B39C0120713327220F331FC0
:1018F000242B24BB4EB19C012072332735952795AC
:1019000035952795242B2EB92081807C9927A3E03B
:1019100095958795AA95E1F7822B80838998899A76
:10192000808187788083A5988EB1877C8EB920814D
:10193000CB0183709927B5E0880F991FBA95E1F71D
:10194000822B80832EB1CB018C709927880F991F31
:10195000880F991F822B8EB924B3CB0180719927F0
:10196000880F991F822B84BB2EB1CB0180729927DF
:101970009595879595958795822B8EB98081607C0A
:101980007727A3E075956795AA95E1F7682B6083A3
:101990008998899A8B9A0895EF92FF920F931F93DB
:1019A000CF93DF937C01E90177FD69C157FD67C1E2
:1019B000FC0180859185681779070CF060C18285EC
:1019C0009385481759070CF05AC180915902882312
:1019D00041F0CE018F719927880F991FC17CC82BC8
:1019E000D92B8A019B01C7010E94EC1B80915A02EE
:1019F000882309F438C18B988A98F70182A593A5AA
:101A000020910201277820930201A5982EB1277C0E
:101A10002EB960910201292F3327A9014370552760
:101A200075E0440F551F7A95E1F7462B409302016C
:101A30006EB1A9014C705527440F551F440F551F17
:101A4000462B4EB964B3A90140715527440F551F69
:101A5000462B44BB6EB1A901407255275595479559
:101A600055954795462B4EB940910201207C33276E
:101A7000B3E035952795BA95E1F7242B2093020121
:101A80008998899A20910201277820930201A598CC
:101A90002EB1277C2EB9409102019C01237033277F
:101AA00015E0220F331F1A95E1F7242B2093020132
:101AB0004EB19C012C703327220F331F220F331F8E
:101AC000242B2EB944B39C0120713327220F331FDE
:101AD000242B24BB4EB19C012072332735952795CA
:101AE00035952795242B2EB920910201807C9927CA
:101AF00073E0959587957A95E1F7822B80930201A3
:101B00008998899A8A9A2C2F220F220F220F80916E
:101B10000201877880930201A5988EB1877C8EB9E7
:101B200080910201809302013EB1CE018827987F07
:101B3000892F9927AC014C705527440F551F440F2E
:101B4000551F432B4EB934B3AC0140715527440F98
:101B5000551F432B44BB3EB1AC01407255275595F0
:101B6000479555954795432B4EB930910201807C9E
:101B7000992713E0959587951A95E1F7832B809324
:101B800002018998899A80910201877880930201E5
:101B9000A5988EB1877C8EB9809102018093020155
:101BA0003EB1C07ED77003E0D695C7950A95E1F7A0
:101BB000CE018C709927880F991F880F991F832B4E
:101BC0008EB934B3CE0180719927880F991F832B6A
:101BD00084BB3EB1CE0180729927959587959595E6
:101BE0008795832B8EB980910201C07CDD2773E03D
:101BF000D595C7957A95E1F7C82BC09302018998CE
:101C0000899A80910201877880930201A5988EB10C
:101C1000877C8EB980910201809302019EB1822F50
:101C20008C70880F880F892B8EB994B3822F8071A6
:101C3000880F892B84BB3EB1922F9072892F90E040
:101C40009595879595958795832B8EB980910201FF
:101C5000207C269526952695282B2093020189988D
:101C6000899A8B9A0CC0BE01F70182A593A5DF91DA
:101C7000CF911F910F91FF90EF900C94D90BDF91B2
:101C8000CF911F910F91FF90EF900895DF92EF9207
:101C9000FF920F931F93CF93DF93CDB7DEB72A97B1
:101CA0000FB6F894DEBF0FBECDBF7C01862F8370C8
:101CB000D70155968C935597462F417060FF05C00C
:101CC00016962D913C91179703C0F7012481358119
:101CD000D70119963C932E931897442329F0149614
:101CE0002D913C91159703C0F70126813781D701CB
:101CF0001B963C932E931A97823041F0833041F02B
:101D0000813011F088E405C088E203C088E901C091
:101D100088EF8A87F701248D358D30FF03C08A85CF
:101D200080588A8731FF04C09A8580E489278A8792
:101D300033FF04C09A8588E089278A87D7015E9699
:101D40008D919C915F9720FFD5C010915A028431EC
:101D5000B8E69B07F9F49A85892F881F8827881F82
:101D60008295880F880F807C96FD02C020E001C01C
:101D700020E298729A871F828260822B88878BE389
:101D80008987AE01495F5F4F63E086EB90E00E9478
:101D9000820A89C08336E9E19E0741F08138F4E97F
:101DA0009F0721F0813125E1920709F52A8527FF58
:101DB00002C021602A872A8526FF02C022602A8766
:101DC000833639E1930719F48A858F730EC0813801
:101DD00044E9940719F48A858F7207C081319541CF
:101DE00009F061C08A858F7E806C8A875CC0112370
:101DF00009F459C062E070E0F70177A366A326E01A
:101E000030E031A720A7E2E2F0E0D7019B96FC93F7
:101E1000EE939A979D967C936E939C9764E070E006
:101E20009F967C936E939E97D1963C932E93D097DA
:101E300028E030E0D3963C932E93D29785369105D7
:101E400021F58A85982F916084FD02C09A8703C08E
:101E500083ED89278A87442351F082E890E0F701D7
:101E600097A386A380E890E091A780A732C280E87C
:101E700090E0D70197969C938E93969782E890E096
:101E800099969C938E93989724C28235924501F53A
:101E90008A85982F926084FD02C09A8719C084EDCC
:101EA00089278A8715C02AE230E0F70137A326A3E5
:101EB0008BE290E091A780A74CE250E053A742A7A5
:101EC00035A724A737A726A791AB80AB93AB82ABEE
:101ED0001111FFC186E390E0AE01465F5F4F61E004
:101EE0000E94820A8A8590E0D70193969C938E93F4
:101EF0009297E6C02A858339B7E79B0709F448C063
:101F000050F48435F1E09F0781F0803234E5930787
:101F100009F081C03DC0863243E99407C9F1893098
:101F2000A5EB9A0709F077C033C087E390E0F7018B
:101F300095A784A786E390E097A786A789E390E01A
:101F400091AB80AB88E390E093AB82AB80E290E012
:101F500097A386A381E290E091A780A782E290E018
:101F600093A782A7822F022E000C990B8827990F26
:101F7000881F9927982F8827990F26FD03C060E0B6
:101F800070E002C060E071E08862682B792B82C04B
:101F900040E052E0D70197965C934E93969741E0CC
:101FA00052E099965C934E93989742E052E09B964C
:101FB0005C934E939A9740E152E09D965C934E93CA
:101FC0009C9741E152E09F965C934E939E9742E12D
:101FD00052E0D1965C934E93D09743E152E0D39672
:101FE0005C934E93D29727FD03C020E030E002C0FF
:101FF00020E030E88632B3E99B0731F08032944527
:1020000019F060E07AE602C060E075E3622B732BA2
:1020100080E094E035C080E290E0D70197969C93F1
:102020008E93969781E290E099969C938E939897E1
:1020300082E290E09B969C938E939A9780E590E045
:102040009D969C938E939C9781E590E09F969C93A0
:102050008E939E9782E590E0D1969C938E93D09735
:1020600083E590E0D3969C938E93D29727FD03C08F
:1020700060E070E002C060E070E8776280E690E0C7
:102080000E94D90B8A8586FD03C060E070E002C023
:1020900060E071E081E090E00E94D90B8A8585FDC7
:1020A00003C060E070E002C068E070E083FD706132
:1020B0006063F70173A362A383E090E00E94D90BF1
:1020C000D70155968C91559780FF36C05C968D91BF
:1020D0009C915D9792FD30C096968D919C919797BB
:1020E00098962D913C91999797963C932E9396971D
:1020F00099969C938E9398979C968D919C919D9781
:10210000D0962D913C91D1979D963C932E939C9780
:10211000D1969C938E93D0979E968D919C919F97EC
:10212000D2962D913C91D3979F963C932E939E9758
:10213000D3969C938E93D297F70102851385015015
:102140001109208531852150310940E050E060E0DF
:1021500070E0C7010E94EC1BD70116966D917C912F
:1021600017975E968D919C915F978732B3E99B0795
:1021700041F4F70125892250223018F400E210E0E2
:1021800002C000E010E08732F3E99F0729F0222720
:102190003327201B310B04C020E230E0201B310B21
:1021A000D7015C964C9140FF45C01982D02E0A831E
:1021B0007B836C833D832E8310915A02111103C0DF
:1021C00083E390E002C08EE090E0AE014F5F5F4F8E
:1021D00066E00E94820A1982DA82111103C087E345
:1021E00090E002C084E190E0AE014F5F5F4F62E09B
:1021F0000E94820A112389F01982F701868D978D3A
:102200008734934819F081E090E002C088E190E0C3
:10221000AE014F5F5F4F61E00AC0D7015C968C91C1
:1022200080FF5AC040E050E060E083E190E00E940F
:10223000820A52C08339B7E79B0779F160F4803294
:10224000F4E59F0751F1833827E7920781F0843541
:10225000914089F510C0863243E99407F1F0893046
:10226000A5EB9A07D1F08532924929F504C0F70110
:1022700060A171A124C0600F711F6150710981E3D9
:1022800090E00E94D90BB80182E390E00E94D90B44
:1022900060E070E083E390E019C0D70190966D9103
:1022A0007C919197626081E094E00E94D90BB80123
:1022B00084E094E00BC0F70160A171A1626081E647
:1022C00090E00E94D90BB8018AE690E00E94D90BF9
:1022D00003C086E190E000CE2A960FB6F894DEBFE8
:1022E0000FBECDBFDF91CF911F910F91FF90EF9067
:1022F000DF9008951F920F920FB60F9211240BB624
:102300000F922F933F938F939F93EF93FF9320917F
:10231000E7043091E8048091E9049091EA042817D9
:10232000390731F4809131018F7D8093310114C0E0
:10233000E091E904F091EA04E955FB4F2081809196
:10234000E9049091EA0401968F7399279093EA0427
:102350008093E90420933601FF91EF919F918F9133
:102360003F912F910F900BBE0F900FBE0F901F90BB
:1023700018950895FC016370658B84819581268191
:102380003781613039F0633029F091878087338756
:1023900022870895318720879387828708956F92D7
:1023A0007F928F929F92AF92BF92CF92DF92EF92E5
:1023B000FF920F931F93CF93DF93EC014B015A01D0
:1023C00069013801E881F9810680F781E02D1995CE
:1023D000E881F9810684F785E02D87019601A50142
:1023E000B401CE011995A501460D571D4150510963
:1023F000E881F9810684F785E02D9601B401CE01CC
:102400001995E881F9810484F585E02D9301A501F2
:10241000B401CE011995C80CD91CB60161507109DF
:10242000E881F9810484F585E02D9301A501CE01B1
:102430001995E881F9810288F389E02DCE01DF91B9
:10244000CF911F910F91FF90EF90DF90CF90BF90B1
:10245000AF909F908F907F906F9019948F929F92E2
:10246000AF92BF92CF92DF92EF92FF920F931F93A2
:10247000CF93DF934C016B015A01E901DC01ED912F
:10248000FC916217730781F40417150724F48B2D50
:102490005801042F182F0A191B0998012F5F3F4F6D
:1024A000008CF18DE02D12C04017510709F5261759
:1024B000370724F48D2D6901C62FD82F9E012C19C2
:1024C0003D092F5F3F4F028CF38DE02D8701A50161
:1024D000B601C4011995DF91CF911F910F91FF9023
:1024E000EF90DF90CF90BF90AF909F908F90089526
:1024F0000680F781E02D1995D401ED91FC910088BB
:10250000F189E02D9E01A501B601C4011995D40100
:10251000ED91FC910288F389E02DC401DF91CF9108
:102520001F910F91FF90EF90DF90CF90BF90AF90F1
:102530009F908F901994EF92FF920F931F93DC015D
:102540001A960D911C911B9718962D913C911997F5
:10255000ED91FC91048CF58DE02D7B0140E050E085
:1025600060E070E019951F910F91FF90EF90089532
:102570004F925F926F927F928F929F92AF92BF9293
:10258000CF92DF92EF92FF920F931F93CF93DF933F
:102590006C012B015A0139014801DC01ED91FC91DC
:1025A0000680F781E02D1995E201640C751CD601B7
:1025B000ED91FC91C615D7055CF40484F585E02DFA
:1025C00087019401A501BE01C60119952196EFCF9F
:1025D0000288F389E02DC601DF91CF911F910F9101
:1025E000FF90EF90DF90CF90BF90AF909F908F9033
:1025F0007F906F905F904F9019948F929F92AF92BF
:10260000BF92CF92DF92EF92FF920F931F93CF93DF
:10261000DF93EC015B014A016901E881F9810680E1
:10262000F781E02D199595012C0D3D1D21503109A3
:10263000E881F9810088F189E02D78018401A40105
:10264000B501CE011995E881F9810288F389E02D61
:10265000CE01DF91CF911F910F91FF90EF90DF900E
:10266000CF90BF90AF909F908F9019948F929F9230
:10267000AF92BF92CF92DF92EF92FF920F931F9390
:10268000CF93DF93EC015B014A0169017801E88196
:10269000F9810680F781E02D1995C80CD91C8601B7
:1026A00001501109E881F9810088F189E02D950137
:1026B000A401B501CE011995E881F9810288F38959
:1026C000E02DCE01DF91CF911F910F91FF90EF9000
:1026D000DF90CF90BF90AF909F908F901994089506
:1026E000EF92FF920F931F93DC01ED91FC91048C0C
:1026F000F58DE02D19951F910F91FF90EF900895A2
:102700000F931F93DC01ED91FC91028CF38DE02D72
:1027100019951F910F9108950F931F93DC01ED916F
:10272000FC91008CF18DE02D19951F910F9108956A
:10273000DC01ED91FC910480F581E02D19942F923C
:102740003F924F925F926F927F928F929F92AF9241
:10275000BF92CF92DF92EF92FF920F931F93CF938E
:10276000DF9300D000D0CDB7DEB72C017E836D8320
:102770006A015901C801FC82EB824801841A950A5A
:1027800097FE03C091948194910835012D813E817B
:10279000621A730A77FE03C0719461947108681419
:1027A00079045CF43A2D2B2D5C01832F922F3D810F
:1027B0002E81DE82CD82C32ED22EAD81BE81AA169D
:1027C000BB065CF43C2D2D2D6C01832F922F3D8197
:1027D0002E81BE82AD82A32EB22E85012D813E8137
:1027E000021B130B1C012C183D0837FE03C031944B
:1027F00021943108780117FF03C03FEFE31AF30A71
:10280000F594E794C816D9062CF08FEF9FEF9A83C2
:10281000898304C0A1E0B0E0BA83A9832D813E8101
:10282000A216B30624F1D201ED91FC910084F1854A
:10283000E02D2B813C816814790424F44D815E8164
:10284000B60103C0A6016D817E81C2011995E2180F
:10285000F308F7FE06C029813A81C20ED31EE00EAE
:10286000F11E8D819E8101969E838D83D7CF269602
:102870000FB6F894DEBF0FBECDBFDF91CF911F9191
:102880000F91FF90EF90DF90CF90BF90AF909F900F
:102890008F907F906F905F904F903F902F90089512
:1028A000CF92DF92EF92FF920F931F93CF93DF931C
:1028B0006C01EB017B01E40EF51E00E010E0CE158B
:1028C000DF0561F06991D601ED91FC910190F081F5
:1028D000E02DC6011995080F191FF1CFC801DF912E
:1028E000CF911F910F91FF90EF90DF90CF900895BF
:1028F0000895AF92BF92CF92EF92FF920F931F93E2
:10290000CF93DF93EC01262F888D998D009709F0E6
:1029100040C06A3059F41D861C862C898E859F859F
:1029200038E0239F800D911D112441C06D3009F4C2
:10293000AAC08E898823C1F03C898C859D8546E09C
:10294000349F800D911D11244885598548175907DA
:102950005CF41D861C868E859F8548E0349F800D23
:10296000911D11249F878E87EA88FB880889198921
:102970004E855F856C857D85CC88CE010E94E521E2
:102980002C898C859D8536E0239F800D911D112417
:1029900042C06A3079F41D861C862C89FC0136966B
:1029A000E4918E859F852E9F800D911D11249F8718
:1029B0008E8769C06D3009F466C0FC01349634918D
:1029C000631708F460C03196E491E61708F45BC021
:1029D000FC01329665917491422F50E0431B5109DE
:1029E00037E0349F5001359FB00C1124A60EB71E5E
:1029F000F501329634913196E491332311F0E111CF
:102A00000DC0F5013496E4912C898C859D85E29F5B
:102A1000800D911D11249D878C8735C0F501359659
:102A200044915E89552311F16C89E32FF0E0E40FA6
:102A3000F11D47FDFA956E9FD0016F9FB00D1124D7
:102A40004C855D854A0F5B1FE885F985E417F5071E
:102A50006CF41D861C86FC013696E4918E859F855C
:102A60006E9F800D911D11249F878E87EA88FB88B9
:102A7000088919894E855F856C857D85CC88CE0156
:102A80000E94E521BECF81E090E0DF91CF911F91C0
:102A90000F91FF90EF90CF90BF90AF900895362F99
:102AA00090E0FC01EC5EF64F4491FC01E253F74FDD
:102AB0002491FC01E857F74F9491992309F468C0D9
:102AC000442309F451C050E0FA013197E131F10596
:102AD00008F04AC08827EE58FF4F8F4F0C94502DB6
:102AE000809180008F7703C0809180008F7D8093DC
:102AF00080003AC084B58F7702C084B58F7D84BDD5
:102B000033C08091B0008F7703C08091B0008F7D7B
:102B10008093B00029C0809190008F7707C080918A
:102B200090008F7D03C080919000877F80939000FC
:102B30001BC08091A0008F7707C08091A0008F7D7F
:102B400003C08091A000877F8093A0000DC080917A
:102B500020018F7707C0809120018F7D03C0809175
:102B60002001877F80932001E92FF0E0EE0FFF1F07
:102B7000E259F74FA591B4919FB7F894311104C071
:102B80008C912095282302C0EC912E2B2C939FBF73
:102B90000895CF93DF9390E0FC01E253F74F249127
:102BA000FC01E857F74F8491882361F190E0880F8A
:102BB000991FFC01EC5AF74FC591D491FC01E259E1
:102BC000F74FA591B491611109C09FB7F89488811E
:102BD000209582238883EC912E230BC0623061F410
:102BE0009FB7F8948881322F309583238883EC91A6
:102BF0002E2B2C939FBF06C08FB7F894E8812E2B05
:102C000028838FBFDF91CF9108950F931F93CF93A8
:102C1000DF93EB010E946C098B010E941D1B8F3F0B
:102C200049F00E946C09601B710B6C177D07A8F3BB
:102C300080E001C081E0DF91CF911F910F91089555
:102C4000CF92DF92EF92FF920F931F93CF93DF9378
:102C5000EC017901411551056105710511F482E11D
:102C600065C08B85833039F0E9E0440F551F661F3E
:102C7000771FEA95D1F79A01AB0168E1CE010E9476
:102C80002C1B882311F084E051C08C8597013E5F96
:102C90006901882321F1F70100E010E0819190E0C3
:102CA00081279C0144E0359527954A95E1F78227D5
:102CB0009327102F0027082719279C01322F22273E
:102CC0003295307F0227132775E0880F991F7A9578
:102CD000E1F708271927CE16DF0601F702C00FEF2C
:102CE0001FEF8EEF0E940A1BF70181917F010E9466
:102CF0000A1BCE14DF04C1F7812F0E940A1B802F0C
:102D00000E940A1B0E941D1B8A878F71853031F03B
:102D100081E18D83CE010E94051B09C068E572E048
:102D2000CE010E940516811107C085E18D83CE0179
:102D30000E94051B80E013C020E030E0A9016DE097
:102D4000CE010E942C1B811104C00E941D1B8823F0
:102D500011F084E1EBCFCE010E94051B81E0DF91F1
:102D6000CF911F910F91FF90EF90DF90CF9008953A
:102D7000809154028823A9F14091000250910102F0
:102D800060910202709103022BE532E080915B04B6
:102D900090915C040E942016811102C080E0089589
:102DA000409155025091560260915702709158021D
:102DB000411551056105710591F02BE532E08091D7
:102DC0005B0490915C040E942016882339F31092D2
:102DD0005502109256021092570210925802109209
:102DE000540281E00895CF93DF93EC018E81882314
:102DF00089F08F8198859C012F5F3F4F38872F8303
:102E00008230924018F40E941D1BF3CFCE010E9425
:102E1000051B1E82DF91CF9108959F92AF92BF92C2
:102E2000CF92DF92EF92FF920F931F93CF93DF9396
:102E30006B017C01942E8091000290910102A0917F
:102E40000202B09103028C159D05AE05BF0509F481
:102E500079C00E94B816882309F47AC0C0915B0437
:102E6000D0915C048E81882369F088819981AA8140
:102E7000BB81C816D906EA06FB0621F48F81988526
:102E8000892BB1F1C882D982EA82FB828B85A701A6
:102E90009601833039F099E0220F331F441F551FEC
:102EA0009A95D1F761E1CE010E942C1B882319F07D
:102EB00083E08D833AC00E946C098B010E941D1B28
:102EC0008A878F3F49F40E946C09601B710B6D3239
:102ED0007140A0F38FE003C08E3F31F08DE08D8311
:102EE000CE010E94051B21C018861F8281E08E83BF
:102EF0000BE512E08BE5A82E84E0B82E0E941D1B86
:102F0000F80181938F01AE16BF06C1F78F819885B6
:102F10009E5F98878F832985222319F0811592401F
:102F200048F0CE010E94F31605C0CE010E94051B99
:102F300080E00EC0C0920002D0920102E092020234
:102F4000F09203024091540249294093540281E0D7
:102F5000DF91CF911F910F91FF90EF90DF90CF9075
:102F6000BF90AF909F9008954F925F926F927F9223
:102F70008F929F92AF92BF92CF92DF92EF92FF9289
:102F80000F931F93CF93DF93EC01423051056105FE
:102F9000710510F480E078C089859A85AB85BC8581
:102FA0000196A11DB11D84179507A607B70790F3D9
:102FB000CB88DC88ED88FE888F89803129F4BB2797
:102FC000A72F962F852F09C0DB01CA01E7E0B69530
:102FD000A79597958795EA95D1F7480159012A0158
:102FE0003B01C80ED91EEA1EFB1E80910002909183
:102FF0000102A0910202B0910302C816D906EA06A6
:10300000FB0681F48F898031A9F4B301A201552711
:1030100066277727440F551FFA01E55AFD4F918225
:10302000808219C040E0C701B6010E940D178111CE
:10303000E9CFB0CFB301A2014F7755276627772795
:10304000440F551F440F551FFA01E55AFD4F80826A
:103050009182A282B3828091540281608093540253
:103060008A89823080F08D819E81AF81B885C80EBB
:10307000D91EEA1EFB1EC0925502D0925602E09263
:103080005702F092580281E0DF91CF911F910F918A
:10309000FF90EF90DF90CF90BF90AF909F908F9078
:1030A0007F906F905F904F9008958F929F92AF9214
:1030B000BF92CF92DF92EF92FF920F931F93CF9325
:1030C000DF93FC0181859285A385B4850196A11DBE
:1030D000B11D84179507A607B70710F480E05BC001
:1030E00083889488A588B6888789803129F4BB278E
:1030F000A72F962F852F09C0DB01CA01C7E0B6951F
:10310000A79597958795CA95D1F7E9016A017B0143
:103110008F01BC01CD01680D791D8A1D9B1D80901A
:10312000000290900102A0900202B0900302681584
:1031300079058A059B0591F4F80187898031A1F40E
:10314000DD24EE24FF24C601880F991FFC01E55AF7
:10315000FD4F80819181A0E0B0E018C040E00E9466
:103160000D178111E9CFBACFE894C7F8DD24EE241A
:10317000FF24C601880F991F880F991FFC01E55A8B
:10318000FD4F80819181A281B381BF708883998333
:10319000AA83BB8381E0DF91CF911F910F91FF90B4
:1031A000EF90DF90CF90BF90AF909F908F90089559
:1031B0004F925F926F927F92AF92BF92CF92DF92C7
:1031C000EF92FF920F931F93CF93DF9300D01F9244
:1031D0001F92CDB7DEB78C016D83DC0115968C9103
:1031E0001597813009F054C014968C9181FF50C01E
:1031F00057C0258530E0275F3F4F2A013B01B1E0F2
:103200004B1A510861087108022E04C07694679425
:10321000579447940A94D2F7D701C6010197A109A0
:10322000B10904C0B695A795979587952A95D2F7C9
:1032300084159505A605B70508F076C0F8014789FD
:10324000508D618D728D46835783608771872C0105
:103250003D015801F6E0AF0EB11C41145104610468
:10326000710409F46BC0D80116964D915D916D9172
:103270007C91199795015B968D919C915C970E942A
:103280005518B1E04B1A5108610871088111E5CF5A
:1032900081E090E0F8019383828380E090E05BC15D
:1032A00082FF0EC0F8014285538564857585C38809
:1032B000D488E588F6884C155D056E057F05E9F430
:1032C000D8011A964D915D916D917C911D975B96F9
:1032D000ED91FC915C97948191506A017B0189E0AA
:1032E000F694E794D794C7948A95D1F79C217A01F4
:1032F000B1E0FB22911173C027C0D801038CF48D7B
:10330000E02DC114D104E104F10409F072CF169646
:103310001D921D921D921C9219971A961D921D9234
:103320001D921C921D9714C0452B462B472B09F468
:1033300085CF84199509A609B70989CFF801C286F6
:10334000D386E486F586BCCFE114F10409F047C0CA
:10335000D80116964D915D916D917C91199741150B
:1033600051056105710559F457968D919D910D9008
:10337000BC91A02D0097A105B10549F522C09E0181
:103380002F5F3F4FCF010E945518882309F485CF46
:1033900089819A81AB81BC81F801238D348DF9013B
:1033A0002789203129F448EF5FEF60E070E004C026
:1033B00048EF5FEF6FEF7FE084179507A607B70729
:1033C00030F0C8010E94E220811106C061CFF801EF
:1033D00086839783A087B187E12CF12C90E0D801F8
:1033E0005B96ED91FC915C9716964D905D906D907B
:1033F0007C901997B2E04B1A510861087108058456
:1034000004C0440C551C661C771C0A94D2F74685F0
:10341000578560897189440E551E661E771E490EB8
:10342000511C611C711CE114F10409F5F80142857D
:1034300053856485758583899489A589B6894817DC
:1034400059076A077B0798F00E94B816882309F489
:103450001FCF4092000250920102609202027092CD
:1034600003028091540281608093540208C041E0BD
:10347000C301B2010E940D17882309F409CFF70197
:10348000E55AFD4F8D818083F80182859385A4855F
:10349000B5850196A11DB11D82879387A487B58745
:1034A0004389548965897689481759076A077B07D4
:1034B00038F4838B948BA58BB68B8481806884834E
:1034C000D80114968C9183FD03C081E090E043C045
:1034D000F8019581992309F4DBCE87FF37C0668513
:1034E00077858089918941E00E940D17882309F42E
:1034F000CFCED8015296EC91B0E2EB9FF0011124AF
:10350000E55AFD4F309709F4C3CED80115968C913A
:103510001597823050F453964D915D916D917C9149
:103520005697448F558F668F778FD80157964D9158
:103530005D916D917C915A97538F428F758B648BFF
:1035400014968C9114978F7714968C930E94B816CA
:103550008111BBCF9DCE0F900F900F900F900F90C9
:10356000DF91CF911F910F91FF90EF90DF90CF905F
:10357000BF90AF907F906F905F904F900895FC0147
:10358000848D958D292F22952F7030E0217033275F
:10359000A9014627BA0171A360A380FF0CC0672B65
:1035A00019F480E290E002C081E290E040E050E057
:1035B00060E00C94820A868D978D833957E79507D2
:1035C000E1F040F4843541E0940779F0803294458D
:1035D000C1F413C0863223E9920779F0893045EBB4
:1035E000940759F08532924961F4660F771F660F90
:1035F000771F636187E090E006C0626081E094E03D
:1036000002C081E690E00C94D90B61E0FC0184815A
:103610000C944F15F89498E02F9887FF02C02D9ACC
:1036200001C02D98880F2F9A9150B1F7000000002B
:10363000000000002F9878940895F8942D9A98E04F
:1036400080E02F9A00000000880F1E9981602F985B
:103650009150B9F7789408958F929F92AF92BF924C
:10366000FF920F931F93CF93DF93EC01F62E490146
:103670005A010E94F31660E08C810E944F156CE2A3
:1036800071E0CE010E9405168F2D80640E940A1BF6
:1036900008E110E0D501C401002E04C0B695A7953D
:1036A000979587950A94D2F70E940A1B0850110932
:1036B000083F8FEF180771F7FF2029F088E0F81214
:1036C00004C087E803C085E901C08FEF0E940A1B90
:1036D00010E00E941D1B8A8787FF04C01F3F11F066
:1036E0001F5FF7CFDF91CF911F910F91FF90BF9098
:1036F000AF909F908F9008950F931F93CF93DF9378
:10370000EC018B0110161106B4F4FE018591949121
:103710002496FE013297659174918F3F2FEF9207A7
:1037200029F480E090E00E94460902C00E94D90B73
:1037300004501109E7CFDF91CF911F910F910895A8
:10374000DF92EF92FF920F931F93CF93DF93CDB74A
:10375000DEB768970FB6F894DEBF0FBECDBF7C0111
:103760008B011016110654F5F70184913196D4900F
:10377000F2E0EF0EF11C8F3741F46D2D70E080E028
:1037800090E00E944609D12C13C02E2DDE01119627
:10379000F701AD019E2F921B9D1520F494919D93EE
:1037A0003196F8CFED0CF11C6D2D90E00E94820A4D
:1037B000ED2DF0E032960E1B1F0BD3CF68960FB69F
:1037C000F894DEBF0FBECDBFDF91CF911F910F9157
:1037D000FF90EF90DF9008958F929F92AF92BF92EB
:1037E000CF92DF92EF92FF920F931F93CF93DF93CD
:1037F00000D01F92CDB7DEB77C014B015A016901A1
:10380000FC01868D978D8732F3E99F0799F4F701C4
:103810008589823031F4F0E2AF0EB11C005E1F4F9B
:103820001EC08330E1F420E2820E911C80E2C80EBB
:10383000D11C15C08632954191F4F701858980FF2E
:103840000EC0C801841B950B19F40F5F1F4F07C0F2
:103850006217730721F46B01C80ED91E8A01F701A4
:10386000848D80FF1AC084A599828A82DB82CC82F3
:10387000AE014F5F5F4F64E090E00E94820AF70163
:1038800080A9B982AA821B830C83AE014F5F5F4F70
:1038900064E090E00E94820A3CC0B401F70186A176
:1038A00097A10E94D90BB501F70180A591A50E94AF
:1038B000D90BC814D90419F40A151B0551F1F701E5
:1038C000848D85FF0EC0858980FF06C0102F0027DC
:1038D000A02AB12A850105C0DC2CCC248C289D2887
:1038E0006401B401F70184A595A50E94D90BB50127
:1038F000F70180A991A90E94D90BB601F70186A50D
:1039000097A50E94D90BB801F70182A993A90E943B
:10391000D90B0F900F900F900F90DF91CF911F91C7
:103920000F91FF90EF90DF90CF90BF90AF909F905E
:103930008F900895AF92BF92CF92DF92EF92FF9255
:103940000F931F93CF93DF93EC018091590288234B
:1039500049F0C7018F719927880F991FE1ECEE227A
:10396000E82AF92A37FF05C0620F731F31952195A8
:103970003109260F371F77FF02C060E070E0E8854D
:10398000F9852E173F070CF4F9015F01A61AB70A53
:1039900017FF05C0400F511F119501951109CA016C
:1039A000800F911F57FF02C040E050E00A851B8541
:1039B000801791070CF48C016801C41AD50A0150D4
:1039C00011099F0121503109CE010E94EC1B8B98F7
:1039D0008A988AA59BA5209102012778209302014D
:1039E000A5982EB1277C2EB960910201292F33278B
:1039F000A9014370552705E0440F551F0A95E1F7CB
:103A0000462B409302016EB1A9014C705527440F1B
:103A1000551F440F551F462B4EB964B3A901407181
:103A20005527440F551F462B44BB6EB1A901407268
:103A300055275595479555954795462B4EB9409135
:103A40000201207C3327A3E035952795AA95E1F75D
:103A5000242B209302018998899A209102012778CA
:103A600020930201A5982EB1277C2EB94091020126
:103A70009C0123703327B5E0220F331FBA95E1F77D
:103A8000242B209302014EB19C012C703327220F6E
:103A9000331F220F331F242B2EB944B39C012071F6
:103AA0003327220F331F242B24BB4EB19C012072DD
:103AB00033273595279535952795242B2EB92091B9
:103AC0000201807C992763E0959587956A95E1F7D7
:103AD000822B809302018998899A8A9AAC14BD043A
:103AE0002CF49A2D8B2D5601C92ED82E8F2D992767
:103AF0009C01237033272295220F207EAC014C704D
:103B00005527342F330F330FAC0140715527440F25
:103B1000BC017695679576956795562F587063E04A
:103B2000969587956A95E1F78871B7016370772755
:103B3000962F9295990F907EB7016C707727660F3C
:103B4000660FF701E071FF277E2F770FD701B6953B
:103B5000A795B695A795A870F701B3E0F695E795F8
:103B6000BA95E1F71E2F18711C141D040CF043C008
:103B7000F501B0910201B778B0930201A598BEB1EA
:103B8000B77CBEB9B0910201B22BB0930201BEB1B5
:103B9000B32BBEB9B4B3B42BB4BBBEB1B52BBEB955
:103BA000B0910201B82BB09302018998899AB09123
:103BB0000201B778B0930201A598BEB1B77CBEB937
:103BC000B0910201B92BB0930201BEB1B62BBEB9C0
:103BD000B4B3B72BB4BBBEB1BA2BBEB9B09102011E
:103BE000B12BB09302018998899A319711F6E1E0DF
:103BF000CE1AD108B9CF8B9A8C8D80FF08C08E8DDC
:103C00009F8D8632954191F48D8980FF0FC00A8582
:103C10001B8501501109288539852150310940E063
:103C200050E060E070E0CE010E94EC1BDF91CF918C
:103C30001F910F91FF90EF90DF90CF90BF90AF90CA
:103C400008958F929F92AF92BF92CF92DF92EF92A0
:103C5000FF92CF93DF93C82F8DE594E090935C049F
:103C600080935B04CC2369F1C53010F080E00CC177
:103C700040E060E070E0CB010E940D178823B1F3B3
:103C800020E1C29FC0011124855B9D4FFC01E254DD
:103C9000FE4F20812F7751F73C9640815181628100
:103CA0007381443651056105710500F33497C08076
:103CB000D180E280F380C114D104E104F10421F445
:103CC000D5CFC12CD12C760140E0C701B6010E94AE
:103CD0000D17882359F28091660290916702811531
:103CE000924021F6A0916B02AA2309F4BFCF609104
:103CF000690270916A026115710509F4B7CF2091CC
:103D00006802222309F4B2CFA0937C0420936E04AE
:103D100080E030E041E050E0C82FFA01082E02C0F8
:103D2000EE0FFF1F0A94E2F72E173F0739F08F5F5F
:103D3000C83091F789E08093770498CF8093770417
:103D400020917102309172022115310519F040E085
:103D500050E008C020917F023091800240918102A2
:103D60005091820220936F04309370044093710449
:103D70005093720446015701860E971EA11CB11C78
:103D800080927D0490927E04A0927F04B092800481
:103D9000E0916C02F0916D02F0938304E093820451
:103DA000B0E00E94582D860E971EA81EB91E809264
:103DB000840490928504A0928604B092870485E0E2
:103DC000EE0FFF1F8A95E1F7E150FE4FEF2FFF271F
:103DD000E6958E0E9F1EA11CB11C809278049092D5
:103DE0007904A0927A04B0927B0420916E02309103
:103DF0006F022115310521F0A90160E070E008C0D3
:103E000040917B0250917C0260917D0270917E0214
:103E1000D701C60188199909AA09BB09840F951F02
:103E2000A61FB71F04C0B695A79597958795CA9505
:103E3000D2F78093730490937404A0937504B093A5
:103E40007604853F2FE09207A105B10510F48CE0C0
:103E500018C0853F9F4FA105B10510F480E111C046
:103E60008091870290918802A0918902B0918A0284
:103E70008093840490938504A0938604B093870470
:103E800080E28093810481E0DF91CF91FF90EF90F9
:103E9000DF90CF90BF90AF909F908F90089581E07A
:103EA00080931D07E1E0F1E08081886780839D9A1F
:103EB0008DB188638DB9809A819A829A839A849A07
:103EC0008B9A889A899A8C9A62E370E080E090E0FD
:103ED0000E9446098C9864E670E080E090E00E94C1
:103EE00046098C9A64E670E080E090E00E94460902
:103EF00060E070E080EB90E00C94D90B0F931F937F
:103F0000CF93DF93EC01162F80911D07811102C022
:103F10000E944F1F8B988A98809102018778809326
:103F20000201A5988EB1877C8EB9409102018D2F38
:103F300099279C012370332755E0220F331F5A9590
:103F4000E1F7242B209302014EB19C012C70332702
:103F5000220F331F220F331F242B2EB944B39C0191
:103F600020713327220F331F242B24BB4EB19C0119
:103F7000207233273595279535952795242B2EB913
:103F800020910201807C9927F3E095958795FA9519
:103F9000E1F7822B809302018998899A809102012E
:103FA000877880930201A5988EB1877C8EB9209185
:103FB0000201CE0183709927A5E0880F991FAA9569
:103FC000E1F7822B809302012EB1CE018C709927EC
:103FD000880F991F880F991F822B8EB924B3CE01A9
:103FE00080719927880F991F822B84BB2EB1CE0137
:103FF000807299279595879595958795822B8EB98F
:1040000080910201C07CDD2743E0D595C7954A9594
:10401000E1F7C82BC09302018998899A8A9A809106
:1040200001018778809301019D988DB1877C8DB9BE
:1040300061E070E080E090E00E944609889A8898EC
:1040400088988898609100018CB1A2B34CB100911E
:104050000001889A889A889888988898E091000149
:10406000FCB132B32CB1C0910001889A115017FFF6
:10407000E5CF889A8B9A90910101986790930101FE
:104080009D9A9DB198639DB9487050E0440F551FAB
:10409000440F551F087198E0099F80011124402B9F
:1040A000512BA072B0E0B595A7954A2B5B2B80737E
:1040B00090E09595879595958795482B592B607637
:1040C00070E0B5E075956795BA95E1F7462B572BEB
:1040D000542F44272870220F220F8C2F887198E0CC
:1040E000899FE00111249C2F922B3072232F30E006
:1040F00035952795292B9F2F907396959695922B02
:104100002E2F2076229526952770292BCA01822BE7
:10411000DF91CF911F910F910895FF920F931F93FD
:10412000CF93DF93EC0160E00E947E1F8C0161E081
:10413000CE010E947E1FF82E62E0CE010E947E1FFB
:1041400020E030E0302F22271127002740E050E008
:104150005F2D60E070E0042B152B262B372B492FA9
:1041600050E060E070E0CB01BA01602B712B822B34
:10417000932BDF91CF911F910F91FF9008950F9393
:104180001F93CF93DF938C0160E00E947E1FEC01B0
:1041900061E0C8010E947E1FAC01CE01A0E0B0E04A
:1041A000DC019927882760E070E08C019D01042BD9
:1041B000152B262B372BC901B801DF91CF911F9109
:1041C0000F9108953F924F925F926F927F928F92DC
:1041D0009F92AF92BF92CF92DF92EF92FF920F9396
:1041E0001F93CF93DF93CDB7DEB72C970FB6F8941C
:1041F000DEBF0FBECDBF5C01DC015B968D909C9055
:104200005C971696CD90DD90ED90FC901997C114B7
:10421000D104E104F10439F0BFEFCB1ADB0AEB0A59
:10422000FB0A312C07C0F401C080D180E280F3800A
:1042300033243394F40181859285A385B4859C0150
:10424000AD012F5F3F4F4F4F5F4F29873A874B8715
:104250005C87260137011D821E821F821886F401A9
:1042600081859285A385B4852D813E814F815885B6
:10427000281739074A075B0708F063C089859A85C4
:10428000AB85BC858C159D05AE05BF0550F482E05D
:10429000C82ED12CE12CF12C92E0492E512C612C0E
:1042A000712C9E012F5F3F4FB701A601C4010E94F0
:1042B0005518882309F445C089819A81AB81BC8156
:1042C000892B8A2B8B2B41F0260137019FEF491A4E
:1042D000590A690A790A05C0C414D504E604F7042A
:1042E00091F02D813E814F8158852F5F3F4F4F4F79
:1042F0005F4F2D833E834F8358873FEFC31AD30A06
:10430000E30AF30AACCF0FEF1FEF2FEF3FE0B3014B
:10431000A201C4010E94B417882399F0D501169612
:104320004D915D916D917C911997411551056105F4
:10433000710549F093018201C4010E94B4178111F3
:1043400002C080E02AC0D50116964D925D926D9212
:104350007C921997332051F0D301C2010196A11D1F
:10436000B11DF40180839183A283B383F501878912
:10437000908DA18DB28D892B8A2B8B2B69F4D50161
:1043800057964D925D926D927C925A9714968C91AD
:104390001497806814968C9381E02C960FB6F8944D
:1043A000DEBF0FBECDBFDF91CF911F910F91FF9068
:1043B000EF90DF90CF90BF90AF909F908F907F90C5
:1043C0006F905F904F903F9008952F923F924F9241
:1043D0005F926F927F928F929F92AF92BF92CF9295
:1043E000DF92EF92FF920F931F93CF93DF93CDB79E
:1043F000DEB76B970FB6F894DEBF0FBECDBF9B8FB5
:104400008A8F5B011A01D22E1F830E833701C98266
:10441000DC0158962D913C9159972115310509F0F1
:10442000E6C018968D919C911997681779070CF042
:10443000CDC11A968D919C911B97481759070CF086
:10444000C5C18C2C912CFB0126E0C29EE00DF11D14
:104450001124FB87EA871E161F060CF0B7C1A401C2
:1044600083E0440F551F8A95E1F75D874C87CA01A9
:10447000820D931D181619060CF0A8C157968C9141
:10448000811104C05FEA5D1508F4D394AA8DBB8D39
:10449000ED91FC9111970680F781E02DCD011995E2
:1044A000B5E0DB9EC0011124F5013596FF87EE874C
:1044B000BB82AA8225019C012A193B09398B288BD2
:1044C000A101485F5F4F5B8B4A8BE889F989E40D56
:1044D000F51DE65AF64F5491588761013D822C82B2
:1044E000888580FF13C0AA8DBB8DED91FC91B981A9
:1044F000B13031F40084F185E02D2E813F8116C06A
:104500000284F385E02DEE80FF801AC0EE81FF81EA
:10451000E615F705F1F0AA8DBB8DED91FC91B981FF
:10452000B13051F40084F185E02D9301A601B20170
:104530008A8D9B8D19950DC00284F385E02D730142
:10454000840194014C815D816A817B818A8D9B8D80
:104550001995E885E695E887FFEFCF1ADF0A2C81E9
:104560003D81280D391D3D832C834A895B89C41602
:10457000D50609F0B5CF5FEF451A550A8A819B81B0
:10458000880D991D9B838A83AE85BF854A165B067D
:1045900009F09BCFEE81FF81E615F70509F4F4C021
:1045A000EA8DFB8DA081B181F981F13079F4B501FB
:1045B0006B5F7F4F1C96ED91FC911D97830128E066
:1045C00030E0A1018A8D9B8D1995DEC06A857B85BF
:1045D000681979091A96ED91FC911B9773010C8566
:1045E0001D859401A1018A8D9B8D1995CDC0F9017E
:1045F0003496E491DE1AF901329685919491B7E0F0
:10460000DB9E800D911D1124F901259134913B8B86
:104610002A8BFC01259134912901FC013296C4902A
:10462000319634913E87329614913196D4904981D7
:10463000423058F0612E012E000C77088D2D0D2C84
:10464000000C990B9987888704C019861886612CFD
:10465000712CAA8DBB8DED91FC9111970680F7818D
:10466000E02DCD011995B9818B2E912C689CC0014C
:10467000699C900D789C900D1124FC01EA0DFB1DA6
:10468000FD87EC871A82712C612CE12F110FFF0B33
:1046900095012E0F3F1F3B872A87AC0CB11CA5014B
:1046A0004E0F5F1F5F8B4E8BC1018D0D911DD7FC8F
:1046B0009A95998F888F9E85691608F065C0862D1A
:1046C00090E048855985480F591F489D9001499DA4
:1046D000300D589D300D1124D101A20FB31FB98B9D
:1046E000A88BEC85FD85FD83EC83AA84BB84DA80EE
:1046F000FA85DF1A288D398D280F391F3D8B2C8BB9
:104700008D2D8A0D4E895F89A416B506C1F187707B
:1047100041F4C2010196EA89FB89E40DF51D74900C
:104720002C0177FE21C0AA8DBB8DED91FC91B98142
:10473000B13061F40084F185E02D2E813F814C89F8
:104740005D89B5018A8D9B8D19950EC00284F38514
:10475000E02DEE80FF8084019401488959896C81A5
:104760007D818A8D9B8D1995770CEFEFAE1ABE0A6D
:104770002C813D81280D391D3D832C83C1CF3A8189
:104780003C0D3A83639497CFAA8DBB8DED91FC913C
:1047900011970288F389E02DCD016B960FB6F8943E
:1047A000DEBF0FBECDBFDF91CF911F910F91FF9064
:1047B000EF90DF90CF90BF90AF909F908F907F90C1
:1047C0006F905F904F903F902F9019946B960FB61B
:1047D000F894DEBF0FBECDBFDF91CF911F910F9137
:1047E000FF90EF90DF90CF90BF90AF909F908F9011
:1047F0007F906F905F904F903F902F900895CF9350
:10480000DF9300D01F92CDB7DEB7789484B5826075
:1048100084BD84B5816084BD85B5826085BD85B564
:10482000816085BD80916E00816080936E001092E2
:10483000810080918100826080938100809181005D
:1048400081608093810080918000816080938000EE
:104850008091B10084608093B1008091B00081604C
:104860008093B0008091910082608093910080914C
:10487000910081608093910080919000816080938D
:1048800090008091A10082608093A1008091A1009E
:1048900081608093A1008091A00081608093A0003E
:1048A00080912101826080932101809121018160AA
:1048B000809321018091200181608093200180916B
:1048C0007A00846080937A0080917A00826080937D
:1048D0007A0080917A00816080937A0080917A00DA
:1048E000806880937A001092C10060E080E090E0E0
:1048F0000E947E1F883024E5920709F4D6C08032DA
:1049000064E5960709F4D4C08938994809F4D3C0FE
:1049100060E087E690E00E947E1F8734974409F4A8
:10492000CDC081EA90E00E94BF20613081E6780727
:1049300009F4C7C06F3F7F4F19F406E215E1F5C0D7
:104940008FEB90E00E948D20673523E8720709F411
:10495000BBC0613884E9780709F4B9C0613195E1D9
:10496000790709F4B7C0603225E1720709F4B5C0D0
:10497000663285E1780709F3613895E1790709F432
:10498000AFC06115744109F4AEC084ED90E00E949F
:10499000BF206031734509F4A9C087ED90E00E9403
:1049A000BF206133704809F4A4C08FEE90E00E94EC
:1049B0008D206732734909F49FC08EEF90E00E940A
:1049C000BF20BB27A92F982F872F8335904209F44A
:1049D00096C084E090E00E94BF209B01811124C01A
:1049E000211570E8370701F58091040290910502C6
:1049F000A091060289839A83AB83AE014F5F5F4F1C
:104A000063E089EB90E00E94820A60E080ED90E034
:104A10000E947E1F893929F08039C9F400E910E924
:104A200084C009E910E081C0263285E1380709F425
:104A300084CF203F99E8390709F464C0223565E83E
:104A4000360709F462C021313C4A09F461C083EDA4
:104A500090E00E94BF20BB27A92F982F872F833675
:104A6000914909F458C083ED90E00E94BF20CB012A
:104A70003DE6370F323008F451C0783909F44EC0A2
:104A8000773709F44BC0763109F448C0633D7105AE
:104A900009F446C0833D934D09F445C060E080E0D1
:104AA00090E00E947E1F8C0140C008E014E53DC0EC
:104AB00000E214E53AC009E812E137C007E413E860
:104AC00034C003E619E131C007E513E82EC001E860
:104AD00014E92BC001E115E128C000E215E125C071
:104AE00001E815E122C004E118E61FC000E113E56A
:104AF0001CC001E310E819C007E213E916C003E582
:104B000010E213C005E317E710C009E817E70DC06E
:104B100001E11CEA0AC003E611E907C08B0105C0E8
:104B200003ED10E002C003ED13ED0E944F1F109241
:104B3000040710920307109308070093070707352F
:104B400073E8170709F499C108F0A5C0033590E28E
:104B5000190709F4F3C108F047C0013165E11607F0
:104B600009F42CC1B0F40939110509F49EC138F4D7
:104B70000130110509F04DC280E091E1B0C104356A
:104B800081E0180709F40FC10530154109F4A5C1EA
:104B900040C2063225E1120709F428C180F4003230
:104BA000154109F036C283E194E0909306078093A3
:104BB000050766E0E62EF12C0FE613E030C201385F
:104BC00085E1180709F4CFC10230164109F021C26E
:104BD00083E094E09093060780930507B6E0EB2E00
:104BE000F12C08EC12E01BC2043128E6120709F48C
:104BF00021C108F5003173E5170709F403C178F402
:104C00000533154409F005C280E090E19093060752
:104C1000809305076CE970E08CE197E0E4C108300F
:104C200024E5120709F459C10930184609F0F1C109
:104C300082E091E162C1033977E7170709F4D6C131
:104C4000A8F4033897E7190709F40CC10938174786
:104C500009F0DFC183E194E0909306078093050794
:104C600021E4E22EF12C0DE113E0D9C1063967E70A
:104C7000160709F493C10133104809F0CAC183E152
:104C800094E1909306078093050792E1E92EF12CB9
:104C90000BE013E0C4C1083383E9180709F454C1D9
:104CA00070F5073223E9120709F430C1B8F4023075
:104CB00073E9170709F445C138F40039104909F0C0
:104CC000A8C183E194E1DBC0003223E9120709F4B3
:104CD00004C10532134909F40BC19BC1093273E9C0
:104CE000170709F434C108F403C1013393E9190724
:104CF00009F401C10533134909F4FDC08AC109381B
:104D000064E91607C8F5073874E9170708F049C1C0
:104D1000013884E9180709F429C190F400541349B3
:104D20000230110508F075C183E194E09093060705
:104D300080930507F5E6EF2EF12C00E612E06FC137
:104D40000638144909F065C183E094E090930607A2
:104D50008093050780EE91E09093F0068093EF0634
:104D600080E491E09093EE068093ED067BE3E72EDE
:104D7000F12C00EE11E053C1053065EB160709F484
:104D800028C138F401311C4A09F043C183E194E1A0
:104D9000E0C0093095EB190709F428C10530154C1E
:104DA00009F417C136C182E090E190930607809321
:104DB00005076CE970E088EB97E015C183E090E0AF
:104DC000909306078093050780EE91E09093F0069C
:104DD0008093EF0680E491E09093EE068093ED06D9
:104DE00073E0E72EF12C05E713E019C183E194E0AD
:104DF00090930607809305075CE0E52EF12C03E60F
:104E000013E00DC183E19EE09093060780930507B0
:104E100080EE91E09093F0068093EF0680E491E0BD
:104E20009093EE068093ED0642E0E42EF12C01E62D
:104E300013E0F5C083E094E09093060780930507A4
:104E400080EE91E09093F0068093EF0680E491E08D
:104E50009093EE068093ED0633E0E32EF12C0EE501
:104E600013E0DDC082E091E190930607809305078F
:104E700060E970E08CE896E0B6C083E094E190933E
:104E800006078093050780EE91E09093F0068093EB
:104E9000EF0680E491E09093EE068093ED0682E0C9
:104EA000E82EF12C09E013E0BAC083E194E190937D
:104EB00006078093050780EE91E09093F0068093BB
:104EC000EF0680E491E09093EE068093ED060DE10D
:104ED000E02EF12C0CEE12E0A2C084E090E1909361
:104EE00006078093050768ED70E084EB95E07BC0D2
:104EF00080E091E102C080E090E19093060780930A
:104F000005076CEC70E088EE94E06DC083E094E0FF
:104F1000909306078093050780E991E09093F0064F
:104F20008093EF0680EF90E09093EE068093ED067D
:104F30001EE1E12EF12C0EEC12E071C087E194E14C
:104F400008C083E094E005C083E194E002C083E000
:104F500096E19093060780930507A3E0EA2EF12CD3
:104F600005EC12E05CC083E194E002C087E094E0CD
:104F7000909306078093050780EE91E09093F006EA
:104F80008093EF0680E491E09093EE068093ED0627
:104F9000E5E4EE2EF12C0BE112E041C083E094E059
:104FA00002C083E194E0909306078093050780EEAA
:104FB00091E09093F0068093EF0680E491E0909367
:104FC000EE068093ED066BE2E62EF12C05EB11E088
:104FD00026C088E090E1909306078093050760EB78
:104FE00070E088E394E00E947C1B17C080E090E1B1
:104FF000909306078093050760EC70E088E793E0E4
:105000000E947C1B80E991E09093F0068093EF066C
:1050100004C01092EE061092ED0600E010E0209120
:105020000607822F82958F7090E081709927909368
:105030000A07809309070115110581F069E070E006
:105040008CEA91E00E94A01BB701C8010E94A01B3E
:1050500066E070E086EA91E00E94A01B60E089EEC5
:1050600096E00E94460E60E089EE96E00E94BF1A2C
:1050700080910707909108078838944909F064C225
:105080001092590220EE3FEF40E050E060E070E007
:1050900089EE96E00E94CC0CE0901307F090140784
:1050A00080915A02811107C08091050780FF03C0DB
:1050B0005EE2E52EF12C809107079091080782307F
:1050C000964119F44EE2E42EF12C00E010E020E0CD
:1050D00030E040E050E060E070E089EE96E00E9451
:1050E000EC1B8091050780FD10C060E070E08091AE
:1050F0000F07909110070E94D90B60E070E080913B
:105100001107909112070E94D90B8B988A98809171
:105110000201877880930201A5988EB1877C8EB9B1
:10512000409102018F2D99279C012370332755E070
:10513000220F331F5A95E1F7242B209302014EB121
:105140009C012C703327220F331F220F331F242B77
:105150002EB944B39C0120713327220F331F242B17
:1051600024BB4EB19C012072332735952795359588
:105170002795242B2EB920910201807C9927F3E0FA
:1051800095958795FA95E1F7822B8093020189988E
:10519000899A80910201877880930201A5988EB147
:1051A000877C8EB920910201C70183709927A5E001
:1051B000880F991FAA95E1F7822B809302012EB1E7
:1051C000C7018C709927880F991F880F991F822B10
:1051D0008EB924B3C70180719927880F991F822B3C
:1051E00084BB2EB1C70180729927959587959595B7
:1051F0008795822B8EB920910201C701807C992767
:1052000033E0959587953A95E1F7822B80930201DB
:105210008998899A8A9A80910101877880930101FF
:105220009D988DB1877C8DB94091050750910607F7
:10523000809107079091080746FD1EC0889A8898BC
:1052400088988898209100012CB122B32CB120912C
:105250000001889A40FD10C0893822E1920761F070
:10526000889A889888988898209100012CB122B358
:105270002CB120910001889A8131954161F4889A7E
:10528000889888988898809100018CB182B38CB1FD
:1052900080910001889AFA01E470FF27889A889823
:1052A0008898889844FF8CC0609100018CB192B3BB
:1052B0007CB1309100016076262F229526952770CB
:1052C000807386958695682F622B9072892F90E067
:1052D00095958795862B672F6870660F660F862BCE
:1052E000632F687198E0699FB0011124682B889A38
:1052F000889A889888988898809100012CB192B3F8
:105300007CB1A09100018076382F329536953770A8
:10531000207326952695822F832B9072292F30E0BB
:1053200035952795282B872F8870880F880F282B75
:105330008A2F887178E0879F70011124822F8E292F
:10534000889A889A88988898889870910001ACB15A
:1053500032B32CB1909100017076B72FB295B6950B
:10536000B770A073A695A6957A2F7B2B3072A32FCA
:10537000B0E0B595A795A72B2870220F220FA22B7E
:10538000987178E0979F900111242A2B889A8C7F3E
:10539000EF2B59F0287F98E0899F70011124F22AA1
:1053A000669566956695E62A7CC0687F78E0879F5B
:1053B00070011124F62A269526952695E22A71C0B9
:1053C000D09000018CB192B3BCB1A0910001889A39
:1053D000889A889888988898309100012CB102B3F7
:1053E0006CB1C09000013076E32EF12C15E0F594FD
:1053F000E7941A95E1F7207330E0359527953595B8
:105400002795E22AF32A007210E015950795E02A05
:10541000F12A687070E0660F771F660F771F97019B
:10542000262B372B6C2D687178E0679F7001112453
:10543000E22AF32A889A2D2D2076322F329536953E
:105440003770807386958695282F232B9072892F2D
:1054500090E095958795822BB870BB0FBB0F8B2B77
:105460002A2F287198E0299F90011124822BF82A75
:1054700043FF03C0FE24EF24FE24EF2B91F097019D
:10548000207E3770C701892F992786958695869546
:10549000822B932BFE2CEE24FF0CFF0CFF0CE82A32
:1054A000F92A80915902882399F09701207CC7013D
:1054B0008827947055E0969587955A95E1F76FE3A4
:1054C000E622FF24F694E794E82AF92AE22AF32A4E
:1054D000889A8B9A809101018867809301019D9A37
:1054E0008DB188638DB940FD14C00091F306109111
:1054F000F406015011092091F1063091F206215075
:10550000310940E050E060E070E089EE96E00E94F2
:10551000EC1B7FE1E7167FEFF706B1F486E08983A5
:10552000AE014F5F5F4F61E08AE390E00E94820A24
:1055300080910507909106078F7E909306078093D0
:10554000050781E08093590261E089EE96E00E94B0
:10555000460E60E070E089EE96E00E94A007E091C0
:10556000DB06F091DC0681E090E09C010090E7060C
:1055700002C0220F331F0A94E2F72083E091D7067E
:10558000F091D8061082E091D906F091DA062FEC5E
:1055900020831092E806E091DD06F091DE0640815E
:1055A0009C010090E30602C0220F331F0A94E2F729
:1055B000242B2083E091DD06F091DE0640819C01E2
:1055C0000090E40602C0220F331F0A94E2F7242B56
:1055D0002083E091DD06F091DE0640819C01009081
:1055E000E50602C0220F331F0A94E2F7242B208322
:1055F000E091DD06F091DE0620810090E60602C013
:10560000880F991F0A94E2F780958223808387ECA4
:1056100096E00E942B0A1092680410926604109281
:10562000630410926204109269048AE0809361041A
:105630008FEF80934A0280934902809348020E9430
:105640006C096B017C0161E0809161040E94C915C5
:105650008DE594E00E94051B60E08CE00E94C91576
:1056600061E08BE00E94C91561E08DE00E94C915E0
:105670001AE08FEF0E940A1B1150D9F7860160E0F3
:10568000809161040E944F1520E030E0A90160E0A4
:105690008DE594E00E942C1BF82E8093670481E036
:1056A000F81649F00E946C09601B710B613D774050
:1056B00058F381E056C02AEA31E040E050E068E06B
:1056C0008DE594E00E942C1B82FF03C0F0926804D9
:1056D00010C094E0F92E0E941D1B80936704FA9479
:1056E000F110F9CF8A3A11F082E03BC082E080935A
:1056F000680480916804823021F0C12CD12C76019D
:1057000005C0C12CD12CE12C80E4F82E20E030E043
:10571000A90167E38DE594E00E942C1BA701960187
:1057200069E28DE594E00E942C1B80936704882336
:1057300049F00E946C09601B710B613D774030F3AA
:1057400088E00FC080916804823001F520E030E0ED
:10575000A9016AE38DE594E00E942C1B882341F0A7
:1057600086E0809362048DE594E00E94051B87C06B
:105770000E941D1B807C803C19F483E080936804A8
:105780000E941D1B0E941D1B0E941D1B8DE594E0A5
:105790000E94051B81E00E94211E882329F0809130
:1057A0008D04882339F06BC080E00E94211E811196
:1057B000F6CF65C0809181048031E9F1803209F033
:1057C0005EC083E080938D04809184049091850471
:1057D000A0918604B091870480939F049093A004C5
:1057E000A093A104B093A20489839A83AB83BC8362
:1057F00049815A816B817C819E012F5F3F4F8AE6F0
:1058000094E00E9455188823D1F149815A816B8117
:105810007C8180918104803129F088EF9FEFAFEF88
:10582000BFE004C088EF9FEFA0E0B0E04817590741
:105830006A077B07E8F28AE694E09093A4048093D9
:10584000A30481E080938C0410928E0410928F0444
:10585000109290041092910410929204109293046A
:10586000109294041092950410929604109297044A
:10587000109298041092990410929A0401C0FFCFDC
:10588000FFCFCF92DF92EF92FF92EDE5F4E0158229
:1058900016821186138682E090E0A0E0B0E0858752
:1058A0009687A787B08B14A216A615A68BE092E068
:1058B00094A783A710AAE7ECF6E01382128288EE81
:1058C000C82E83E0D82EE12CF12CC482D582E6824A
:1058D000F78263E172E07183608383E896E09587E5
:1058E00084878FE396E09787868785EC90E0918B9D
:1058F000808B84EC90E0938B828B80EC90E0958B96
:10590000848B81EC90E0978B868B82EC90E0918F7A
:10591000808F86EC90E0938F828F44E0448F33E059
:10592000358F27E0268F95E0978F81E080A3E2E610
:10593000F7E013821282C482D582E682F7827183F5
:105940006083ABEFB5E0B587A487A7EBB5E0B78779
:10595000A687ADECB0E0B18BA08BACECB0E0B38B24
:10596000A28BA8ECB0E0B58BA48BA9ECB0E0B78B10
:10597000A68BAAECB0E0B18FA08FAEECB0E0B38FF5
:10598000A28F448F358F268F978F80A3E0E4F7E0B6
:1059900013821282C482D582E682F7827183608389
:1059A000A3E7B5E0B587A487AFE2B5E0B787A687E0
:1059B000A5EDB0E0B18BA08BA4EDB0E0B38BA28BD2
:1059C000A0EDB0E0B58BA48BA1EDB0E0B78BA68BBA
:1059D000A2EDB0E0B18FA08FA6EDB0E0B38FA28FA3
:1059E000448F358F268F978F80A3EEE1F7E01382E7
:1059F0001282C482D582E682F782718360836BEE65
:105A000074E07587648767EA74E07787668765E383
:105A100071E0718B608B64E371E0738B628B60E388
:105A200071E0758B648B61E371E0778B668B62E369
:105A300071E0718F608F66E371E0738F628F448FC6
:105A4000358F268F978F80A3E9EEF6E013821282BE
:105A500040EF50E05583448320E431E037832683D0
:105A60005187408733872287158A158614861786C3
:105A70001686848B2FEF3FEF338B228B318B208B5D
:105A8000868B178A118E108E83E292E09183808339
:105A9000FF90EF90DF90CF900895F8940C94722DC2
:105AA000EE0FFF1F881F8BBF0790F691E02D199412
:105AB0000E94632DA59F900DB49F900DA49F800D13
:105AC000911D11240895A29FB001B39FC001A39F0F
:105AD000700D811D1124911DB29F700D811D112427
